:020000040800F2
:100000000000022025170008F5140008F714000866
:10001000F9140008FB140008FD140008000000009B
:10002000000000000000000000000000FF140008B5
:100030000115000800000000031500080515000860
:100040007517000875170008751700087517000860
:1000500075170008751700087517000809150008BE
:100060007517000875170008751700087517000840
:100070007517000875170008751700087517000830
:10008000751700081115000875170008000000001A
:1000900000000000000000000000000075170008CC
:1000A0007517000875170008751700087517000800
:1000B000751700081D15000875170008751700084A
:1000C00075170008751700087517000875170008E0
:1000D00075170008751700082915000800000000B2
:1000E0007517000875170008751700080000000054
:1000F000000000000000000000000000751700086C
:100100000000000075170008751700087517000833
:1001100000000000000000000000000000000000DF
:10012000751700087517000875170008751700087F
:10013000751700080000000000000000000000002B
:10014000000000000000000000000000751700081B
:10015000751700087517000875170008751700084F
:100160007517000875170008000000000000000067
:10017000000000000000000000000000000000007F
:1001800000000000751700080000000000000000DB
:0801900075170008751700083F
:1001A00010B5054C237833B9044B13B10448AFF3B1
:1001B00000800123237010BD7000002000000000AB
:1001C000D03F000808B5034B1BB103490348AFF308
:1001D000008008BD0000000074000020D03F00082F
:1001E00081F0004102E000BF83F0004330B54FEAE8
:1001F00041044FEA430594EA050F08BF90EA020F55
:100200001FBF54EA000C55EA020C7FEA645C7FEAE7
:10021000655C00F0E2804FEA5454D4EB5555B8BF0A
:100220006D420CDD2C4480EA020281EA030382EA7B
:10023000000083EA010180EA020281EA0303362D0D
:1002400088BF30BD11F0004F4FEA01314FF4801CE0
:100250004CEA113102D0404261EB410113F0004FF2
:100260004FEA03334CEA133302D0524263EB4303A9
:1002700094EA050F00F0A780A4F10104D5F1200E47
:100280000DDB02FA0EFC22FA05F2801841F10001A2
:1002900003FA0EF2801843FA05F359410EE0A5F176
:1002A00020050EF1200E012A03FA0EFC28BF4CF0A7
:1002B000020C43FA05F3C01851EBE37101F000455D
:1002C00007D54FF0000EDCF1000C7EEB00006EEB6A
:1002D0000101B1F5801F1BD3B1F5001F0CD34908F4
:1002E0005FEA30004FEA3C0C04F101044FEA44524B
:1002F00012F5800F80F09A80BCF1004F08BF5FEAD2
:10030000500C50F1000041EB045141EA050130BDB1
:100310005FEA4C0C404141EB0101013C28BFB1F5C3
:10032000801FE9D291F0000F04BF01460020B1FA0E
:1003300081F308BF2033A3F10B03B3F120020CDAE1
:100340000C3208DD02F1140CC2F10C0201FA0CF0BF
:1003500021FA02F10CE002F11402D8BFC2F1200C24
:1003600001FA02F120FA0CFCDCBF41EA0C019040DA
:10037000E41AA2BF01EB0451294330BD6FEA040423
:100380001F3C1CDA0C340EDC04F11404C4F120020E
:1003900020FA04F001FA02F340EA030021FA04F320
:1003A00045EA030130BDC4F10C04C4F1200220FA77
:1003B00002F001FA04F340EA0300294630BD21FAB5
:1003C00004F0294630BD94F0000F83F4801306BF7B
:1003D00081F480110134013D4EE77FEA645C18BF6F
:1003E0007FEA655C29D094EA050F08BF90EA020F06
:1003F00005D054EA000C04BF1946104630BD91EAFE
:10040000030F1EBF0021002030BD5FEA545C05D100
:100410004000494128BF41F0004130BD14F580043F
:100420003CBF01F5801130BD01F0004545F0FE41B3
:1004300041F470014FF0000030BD7FEA645C1ABFE8
:10044000194610467FEA655C1CBF0B46024650EA1F
:10045000013406BF52EA033591EA030F41F400214B
:1004600030BD00BF90F0000F04BF0021704730B5D1
:100470004FF4806404F132044FF000054FF00001A6
:1004800050E700BF90F0000F04BF0021704730B567
:100490004FF4806404F1320410F0004548BF40423C
:1004A0004FF000013EE700BF42004FEAE2014FEA91
:1004B00031014FEA02701FBF12F07F4393F07F4F6C
:1004C00081F06051704732F07F4208BF704793F06F
:1004D0007F4F04BF41F40021704730B54FF4607482
:1004E00001F0004521F000411CE700BF50EA010285
:1004F00008BF704730B54FF000050AE050EA01022E
:1005000008BF704730B511F0004502D5404261EB9D
:1005100041014FF4806404F132045FEA915C3FF4DE
:10052000D8AE4FF003025FEADC0C18BF03325FEA7B
:10053000DC0C18BF033202EBDC02C2F1200300FA2C
:1005400003FC20FA02F001FA03FE40EA0E0021FA51
:1005500002F11444BDE600BF70B54FF0FF0C4CF43F
:10056000E06C1CEA11541DBF1CEA135594EA0C0FF1
:1005700095EA0C0F00F0DEF82C4481EA030621EA2C
:100580004C5123EA4C5350EA013518BF52EA033567
:1005900041F4801143F4801338D0A0FB02CE4FF019
:1005A0000005E1FB02E506F00042E0FB03E54FF049
:1005B0000006E1FB03569CF0000F18BF4EF0010E41
:1005C000A4F1FF04B6F5007F64F5407404D25FEA3D
:1005D0004E0E6D4146EB060642EAC62141EA5551F0
:1005E0004FEAC52040EA5E504FEACE2EB4F1FD0C32
:1005F00088BFBCF5E06F1ED8BEF1004F08BF5FEAB0
:10060000500E50F1000041EB045170BD06F0004661
:1006100046EA010140EA020081EA0301B4EB5C040E
:10062000C2BFD4EB0C0541EA045170BD41F4801106
:100630004FF0000E013C00F3AB8014F1360FDEBF2B
:10064000002001F0004170BDC4F10004203C35DA07
:100650000C341BDC04F11404C4F1200500FA05F38A
:1006600020FA04F001FA05F240EA020001F000422B
:1006700021F0004110EBD37021FA04F642EB0601A1
:100680005EEA430E08BF20EAD37070BDC4F10C04CB
:10069000C4F1200500FA04F320FA05F001FA04F28F
:1006A00040EA020001F0004110EBD37041F100017B
:1006B0005EEA430E08BF20EAD37070BDC4F1200586
:1006C00000FA05F24EEA020E20FA04F301FA05F2EE
:1006D00043EA020321FA04F001F0004121FA04F296
:1006E00020EA020000EBD3705EEA430E08BF20EA66
:1006F000D37070BD94F0000F0FD101F000464000A0
:1007000041EB010111F4801F08BF013CF7D041EA21
:10071000060195F0000F18BF704703F00046520025
:1007200043EB030313F4801F08BF013DF7D043EAF6
:100730000603704794EA0C0F0CEA135518BF95EAAC
:100740000C0F0CD050EA410618BF52EA4306D1D133
:1007500081EA030101F000414FF0000070BD50EA52
:10076000410606BF1046194652EA430619D094EADC
:100770000C0F02D150EA013613D195EA0C0F05D1C6
:1007800052EA03361CBF104619460AD181EA03011A
:1007900001F0004141F0FE4141F470014FF00000D2
:1007A00070BD41F0FE4141F4780170BD70B54FF06D
:1007B000FF0C4CF4E06C1CEA11541DBF1CEA1355ED
:1007C00094EA0C0F95EA0C0F00F0A7F8A4EB0504CF
:1007D00081EA030E52EA03354FEA013100F08880C6
:1007E0004FEA03334FF0805545EA131343EA12638F
:1007F0004FEA022245EA111545EA10654FEA002644
:100800000EF000419D4208BF964244F1FD0404F5FC
:10081000407402D25B084FEA3202B61A65EB030558
:100820005B084FEA32024FF480104FF4002CB6EB15
:10083000020E75EB030E22BFB61A754640EA0C0095
:100840005B084FEA3202B6EB020E75EB030E22BFD5
:10085000B61A754640EA5C005B084FEA3202B6EB16
:10086000020E75EB030E22BFB61A754640EA9C00D5
:100870005B084FEA3202B6EB020E75EB030E22BFA5
:10088000B61A754640EADC0055EA060E18D04FEA63
:10089000051545EA16754FEA06164FEAC30343EA03
:1008A00052734FEAC2025FEA1C1CC0D111F4801FD0
:1008B0000BD141EA00014FF000004FF0004CB6E7C9
:1008C00011F4801F04BF01430020B4F1FD0C88BF68
:1008D000BCF5E06F3FF6AFAEB5EB030C04BFB6EB73
:1008E000020C5FEA500C50F1000041EB045170BD66
:1008F0000EF0004E4EEA113114EB5C04C2BFD4EB93
:100900000C0541EA045170BD41F480114FF0000E16
:10091000013C90E645EA060E8DE60CEA135594EA92
:100920000C0F08BF95EA0C0F3FF43BAF94EA0C0F95
:100930000AD150EA01347FF434AF95EA0C0F7FF40A
:1009400025AF104619462CE795EA0C0F06D152EA5E
:1009500003353FF4FDAE1046194622E750EA410642
:1009600018BF52EA43067FF4C5AE50EA41047FF453
:100970000DAF52EA43057FF4EBAE12E74FEA4102B6
:10098000B2F1E04324BFB3F5001CDCF1FE5C0DD9ED
:1009900001F0004C4FEAC0024CEA5070B2F1004F37
:1009A00040EB830008BF20F00100704711F0804F3A
:1009B00021D113F13872BCBF01F00040704741F4FF
:1009C00080114FEA5252C2F11802C2F1200C10FA03
:1009D0000CF320FA02F018BF40F001004FEAC123E7
:1009E0004FEAD32303FA0CFC40EA0C0023FA02F38B
:1009F0004FEA4303CCE77FEA625307D150EA013361
:100A00001EBF4FF0FE4040F44000704701F0004030
:100A100040F0FE4040F40000704700BF53B94AB9AF
:100A2000002908BF00281CBF4FF0FF314FF0FF30F6
:100A300000F074B9ADF1080C6DE904CE00F006F8D1
:100A4000DDF804E0DDE9022304B070472DE9F0474A
:100A5000089D04468E46002B4DD18A42944669D9A2
:100A6000B2FA82F252B101FA02F3C2F1200120FA85
:100A700001F10CFA02FC41EA030E94404FEA1C48D3
:100A8000210CBEFBF8F61FFA8CF708FB16E341EACF
:100A9000034306FB07F199420AD91CEB030306F155
:100AA000FF3080F01F81994240F21C81023E634476
:100AB0005B1AA4B2B3FBF8F008FB103344EA03441A
:100AC00000FB07F7A7420AD91CEB040400F1FF332F
:100AD00080F00A81A74240F207816444023840EA6C
:100AE0000640E41B00261DB1D4400023C5E90043A5
:100AF0003146BDE8F0878B4209D9002D00F0EF8028
:100B00000026C5E9000130463146BDE8F087B3FA5A
:100B100083F6002E4AD18B4202D3824200F2F98042
:100B2000841A61EB030301209E46002DE0D0C5E945
:100B3000004EDDE702B9FFDEB2FA82F2002A40F091
:100B40009280A1EB0C014FEA1C471FFA8CFE012694
:100B5000200CB1FBF7F307FB131140EA01410EFB38
:100B600003F0884208D91CEB010103F1FF3802D2DF
:100B7000884200F2CB804346091AA4B2B1FBF7F0D9
:100B800007FB101144EA01440EFB00FEA64508D9FC
:100B90001CEB040400F1FF3102D2A64500F2BB8039
:100BA0000846A4EB0E0440EA03409CE7C6F1200788
:100BB000B34022FA07FC4CEA030C20FA07F401FACE
:100BC00006F31C43F9404FEA1C4900FA06F3B1FB57
:100BD000F9F8200C1FFA8CFE09FB181140EA0141BC
:100BE00008FB0EF0884202FA06F20BD91CEB010159
:100BF00008F1FF3A80F08880884240F28580A8F1B1
:100C000002086144091AA4B2B1FBF9F009FB101102
:100C100044EA014100FB0EFE8E4508D91CEB0101A0
:100C200000F1FF346CD28E456AD90238614440EA43
:100C30000840A0FB0294A1EB0E01A142C846A646C3
:100C400056D353D05DB1B3EB080261EB0E0101FA4C
:100C500007F722FA06F3F1401F43C5E900710026A9
:100C60003146BDE8F087C2F12003D8400CFA02FCFF
:100C700021FA03F3914001434FEA1C471FFA8CFE0F
:100C8000B3FBF7F007FB10360B0C43EA064300FBFF
:100C90000EF69E4204FA02F408D91CEB030300F19D
:100CA000FF382FD29E422DD9023863449B1B89B254
:100CB000B3FBF7F607FB163341EA034106FB0EF3DD
:100CC0008B4208D91CEB010106F1FF3816D28B428A
:100CD00014D9023E6144C91A46EA004638E72E4656
:100CE000284605E70646E3E61846F8E64B45A9D24E
:100CF000B9EB020864EB0C0E0138A3E74646EAE7BD
:100D0000204694E74046D1E7D0467BE7023B61446A
:100D100032E7304609E76444023842E7704700BFD3
:100D2000034613F8012B002AFBD1181A013870472B
:100D300001F0FF01102A2BDB10F0070F08D010F88C
:100D4000013B013A8B422DD010F0070F42B3F6D190
:100D5000F0B441EA012141EA014122F007047FF0A9
:100D600000070023F0E80256083C85EA010586EA00
:100D7000010685FA47F5A3FA87F586FA47F6A5FA3C
:100D800087F68EB9EED1F0BC01F0FF0102F0070248
:100D900032B110F8013B013A83EA010313B1F8D1F3
:100DA0000020704701387047002D06BF35460338D4
:100DB000073815F0010F07D1013015F4807F02BF0D
:100DC000013015F4C03F0130F0BC0138704700BF5E
:100DD00007B50B4B00220192196B41F40011196306
:100DE0001B6B03F40013019311461120019B00F0CB
:100DF000D5FC112003B05DF804EB00F001BD00BF8D
:100E00000038024030B514228BB00DEB02000021F7
:100E100002F068FC00242C4B01941A6B2B4D42F01D
:100E200004021A631A6B02F004020192019A0294FE
:100E30001A6B42F080021A631A6B02F0800202926F
:100E4000029A03941A6B42F001021A631A6B02F0C1
:100E500001020392039A04941A6B42F002021A638D
:100E60001B6B03F002030493224628462021049BB7
:100E700000F094FF4FF400524FF4041305A91448F6
:100E80000794CDE9052300F0C1FE4FF48813022139
:100E9000CDE905130E48079405A900F0B7FE01231C
:100EA0002020CDE9050305A92846CDE9074400F037
:100EB000ADFE22462146072000F070FC072000F01E
:100EC0009FFC0BB030BD00BF003802400000024064
:100ED0000008024008B50B480B4A0C4BC0E9002340
:100EE00000234FF48042C0E90233C0E90423C0E983
:100EF0000633036201F040F918B1BDE8084000F084
:100F000047B908BD8C00002000540040801A06003C
:100F100030B5044689B01422002103A802F0E2FB98
:100F20002268154B9A4224D1144C1548002501958E
:100F3000236B43F002032363236B03F0020301934B
:100F4000019B4FF440721223CDE9032301210323B7
:100F5000CDE90513042303A9079300F057FE02957A
:100F6000236C43F400132364236C03F400130293F3
:100F7000029B09B030BD00BF005400400038024061
:100F80000004024010B594B0102200210AA802F01B
:100F9000A9FB1422002103A802F0A4FB1F4B00218F
:100FA00001911A6C42F080521A641B6C03F080535A
:100FB0000193019B1A4B02911A6842F440421A6055
:100FC0001B6803F440430293029B01224FF4A023C9
:100FD000CDE9082302244FF48003CDE90E43082114
:100FE0004FF4C873CDE9101308A80423CDE91233D8
:100FF00001F002FB08B172B6FEE70F23CDE903341E
:101000004FF48053CDE906300590032103A801F089
:10101000D1FC08B172B6FEE714B010BD0038024032
:10102000007000402DE980483A4CDFF8F0903A4FCC
:101030008DB002F0EDFAFFF7A5FF0023E3702370F7
:101040006370082323710123A370FFF7DBFEFFF712
:10105000BFFE00F0F1FAFFF73DFF00F095FA2F48D0
:10106000214600F097F82E4B1B7803B9FEE72D4E72
:101070002D4D32462146484600F02AF92A4621469F
:10108000484600F079F9294B30681860284BD6F8AB
:101090000480C3F80080274BB6681E60264BD5F845
:1010A00000A0C3F800A0254BD5F804B0C3F800B0E9
:1010B000234BAD681D60FFF7F7F902460B46284643
:1010C000CDE90A23FFF7F0F9CDE908015846FFF70B
:1010D000EBF9CDE906015046FFF7E6F9CDE9040149
:1010E0003046FFF7E1F9CDE902014046FFF7DCF9B0
:1010F000DDE90A23CDE900011249384602F0FAFA87
:101100003846FFF70DFE394682B20F4802F010F85C
:10111000A9E700BF58010020F80000208C00002043
:101120003E010020E000002048010020EC000020EB
:10113000F0000020F40000204001002044010020C5
:1011400054010020E83F00080C020020034B8342BA
:1011500002BF034B01221A70704700BF64010020D8
:101160003E010020084B98420CD103685A68732A4C
:1011700002D1064801F012BD5B68652B02D103481D
:1011800001F03EBD704700BF0C020020640100204A
:1011900072B6FEE72DE9F04387B001244FF47A7967
:1011A0000DF117072346CDE901490E464FF000081F
:1011B00000977522D02105468DF8178001F014F9AB
:1011C0009DF81730682B46D123466B22D021CDE9FC
:1011D0000149CDF80080284601F076F8642002F03D
:1011E00043FAB278337822B99DF8172008331343B5
:1011F000DBB201244FF47A788DF817306A22234647
:10120000D021CDE901480094284601F05DF87378BB
:101210008DF817301A222346D021CDE901480097D6
:10122000284601F051F8F3788DF817301C22234638
:10123000D021CDE901480097284601F045F83379DF
:101240008DF81730CDE90148009723461B22D021A5
:10125000284601F039F807B0BDE8F08310B5062341
:1012600086B04FF47A72CDE9013204AB0C4600939C
:1012700043220123D02101F0B7F8BDF810305BBA4A
:101280002380BDF812305BBA6380BDF814305BBABE
:10129000A38006B010BD10B5062386B04FF47A7255
:1012A000CDE9013204AB0C4600933B220123D0214F
:1012B00001F09AF8BDF810305BBA2380BDF8123007
:1012C0005BBA6380BDF814305BBAA38006B010BD72
:1012D00037B50D4669461446FFF7DDFFEB7803BBD3
:1012E000BDF90030DFED206A07EE103AB8EEC77A9C
:1012F00027EE267ABDF9023084ED007A07EE103A27
:10130000BDF9043007EE903AB8EEC77AF8EEE77A06
:1013100027EE267A67EEA67A84ED017AC4ED027A8A
:1013200005E0082B05D0102B0CD0182B13D003B0E0
:1013300030BDBDF90030DFED0D6A07EE103AB8EEB2
:10134000C77AD5E7BDF90030DFED096A07EE103A3C
:10135000B8EEC77ACCE7BDF90030DFED066A07EEDC
:10136000103AB8EEC77AC3E70000803800000039B1
:10137000000080390000003A37B50D466946144632
:10138000FFF76CFF2B7903BB8321BDF9002092FB93
:10139000F1F207EE902AF8EEE77ABDF90220C4EDEB
:1013A000007A92FBF1F207EE902AF8EEE77ABDF9A7
:1013B0000430C4ED017A93FBF1F307EE903AF8EEB6
:1013C000E77AC4ED027A03B030BD082B23D0102B8E
:1013D00046D0182BF7D1BDF90000FFF753F830A322
:1013E000D3E90023FFF7E2F9FFF7C8FA2060BDF95F
:1013F0000200FFF747F82AA3D3E90023FFF7D6F945
:10140000FFF7BCFA6060BDF90400FFF73BF824A3C6
:10141000D3E900231EE0BDF90000FFF733F822A353
:10142000D3E90023FFF7C2F9FFF7A8FA2060BDF95E
:101430000200FFF727F81CA3D3E90023FFF7B6F952
:10144000FFF79CFA6060BDF90400FFF71BF816A3D4
:10145000D3E90023FFF7AAF9FFF790FAA060B2E7FB
:10146000BDF90000FFF70EF811A3D3E90023FFF741
:101470009DF9FFF783FA2060BDF90200FFF702F83B
:101480000BA3D3E90023FFF791F9FFF777FA606028
:10149000BDF90400FEF7F6FF05A3D3E90023D9E761
:1014A0006666666666663040000000000060504078
:1014B000666666666666404082B00D4B002100910C
:1014C0005A6C42F480425A645A6C02F48042009290
:1014D000009A01911A6C42F080521A641B6C03F05E
:1014E00080530193019B072002B000F045B900BF73
:1014F00000380240FEE7FEE7FEE7FEE7FEE7704742
:101500007047704702F09EB8022000F04DBC00000A
:10151000014800F0BDBA00BFAC010020014801F055
:101520008BBB00BF64010020014801F0FDBE00BF7D
:101530000C0200200B4A116810B5034609B90A498C
:101540001160106809490A4C0344091B8B4206D9F3
:1015500002F09EF80C2303604FF0FF3010BD1360C3
:10156000FCE700BF600100206802002000000220AC
:1015700000040000034AD2F8883043F47003C2F834
:101580008830704700ED00E07FB51022002102A8EE
:1015900002F0A8F81548164942F20F720023C0E97C
:1015A00000123122CDE90033C0E903238360802398
:1015B000836101F031FC08B1FFF7EAFD4FF480537D
:1015C0000A48029302A901F05DFC08B1FFF7E0FDB3
:1015D000002306486946CDE9003301F0A7FA08B1B7
:1015E000FFF7D6FD07B05DF804FB00BF64010020E3
:1015F0000004004007B50F4B02689A4216D1002242
:1016000003F50D330192196C41F0020119641B6C52
:1016100003F00203019311461D20019B00F0BEF868
:101620001D2003B05DF804EB00F0EAB803B05DF8EC
:1016300004FB00BF000400400B480C4A08B54FF4FF
:10164000E133C0E9002300230C22C0E90233C0E9E2
:1016500005230361C36101F03DFD18B1BDE80840F9
:10166000FFF796BD08BD00BF0C02002000440040FB
:1016700070B5064688B01422002103A802F032F8A3
:101680003268244B9A4243D1002503F5FA33019581
:101690001A6C2148214C42F400321A641A6C02F48C
:1016A00000320192019A02951A6B42F001021A630C
:1016B0001B6B03F001030293029B0C220223CDE972
:1016C000032303210723CDE9061303A900F09EFAA3
:1016D00013484FF00063C4E900034023C4E9023516
:1016E00020464FF48063C4E90435C4E90655C4E9D3
:1016F000085500F0BDF808B1FFF74AFD00227463F9
:1017000026201146A66300F049F8262000F078F85C
:1017100008B070BD0044004000000240AC01002051
:10172000A0600240DFF834D00D480E490E4A002375
:1017300002E0D458C4500433C4188C42F9D30B4A85
:101740000B4C002301E013600432A242FBD3FFF7ED
:1017500011FF01F0A3FFFFF765FC704700000220B6
:101760000000002070000020704000087000002081
:1017700064020020FEE700000749CA6822F4E06224
:101780000302120403F4E063120C134343F0BF633B
:1017900043F40033CB60704700ED00E0164B30B5EA
:1017A000DC68C4F30224C4F10705231D042D28BFFF
:1017B0000425062B4FF0FF338CBF033C002403FAB3
:1017C00005F521EA0501A34022EA0302A140002811
:1017D00041EA0203ACBF00F16040084A4FEA03133C
:1017E000B8BF00F00F00DBB2AABF00F56140135490
:1017F00080F8003330BD00BF00ED00E014ED00E0E4
:10180000002808DB4209012300F01F0003FA00F062
:10181000014B43F82200704700E100E00138B0F1CD
:10182000807F0BD24FF0E023054A5861F02182F807
:1018300023100020072298611A6170470120704729
:1018400000ED00E0036810B5084C0246D9B210392B
:101850001820B1FBF0F0205CD06523F47F7020F0FD
:1018600003005F2988BF0430906510BD2540000843
:1018700070B5044601F0F2FE0546002C73D0022339
:1018800084F835302268002384F83430136823F05C
:101890000103136021680B68D8072FD40B68334D00
:1018A000A0691D40D4E901231343E2681343226970
:1018B000134362691343E26903431343226A1343E8
:1018C000626A042A43EA050302BFD4E90B56354392
:1018D0002B430B604B69042A23F0070343EA0203FE
:1018E00033D1A26AE56A13437DB390B9012A21D0AE
:1018F00032F0020229D1EA0127D51EE001F0AEFE46
:10190000401B0528C6D920236365032084F83500D1
:1019100070BDB0F5005F14D1032A16D801A050F8AD
:1019200022F000BF3B190008F71800083B19000817
:1019300035190008B5F1C07F07D140236365012048
:10194000E4E7022AF9D9032AD5D04B612046FFF7F4
:1019500079FFE26D3F23934083600020012360659F
:1019600084F83530D4E70120D2E700BF3F8010F083
:1019700070B590F83440866D012C31D0012480F888
:10198000344090F83540012C4FF000054FF0020430
:1019900024D180F8354004684565256825F4802504
:1019A000256063608368402B0EBFA260A160E26087
:1019B000C26D08BFE1603F239340B360236843F0EA
:1019C00016032360036C1BB1236843F008032360F4
:1019D000236843F001032360002070BD80F8345079
:1019E0000220FAE770B50446866D01F037FE94F8E0
:1019F0003530022B054606D080236365002384F82A
:101A00003430012070BD23681A6822F016021A6073
:101A10005A6922F080025A61226C0AB9A26C1AB18A
:101A20001A6822F008021A601A6822F001021A608D
:101A300023681B6813F001030AD1E16D3F228A403D
:101A4000B260012284F8352084F834301846D9E792
:101A500001F004FE401B0528EAD92023636503201A
:101A6000002384F8350084F83430CBE790F8353023
:101A7000022B03D0802343650120704702680523B1
:101A800080F83530136823F001031360002070479D
:101A9000F7B5002301935C4B856D1F68C36D2E68FD
:101AA00008229A40324204460CD001680868400778
:101AB00008D5086820F004000860AA60626D42F052
:101AC0000102626501229A40324208D021684969C8
:101AD000090641BFAA60626D42F0020262650422FB
:101AE0009A40324208D021680968880741BFAA603D
:101AF000626D42F00402626510229A40324210D0B8
:101B00002368196809070CD5AA601A68500337D5ED
:101B10001B68190301D4236C00E0A36C0BB12046B1
:101B20009847E16D20228A4032423AD023681868F3
:101B3000C60636D5AA6094F83520052A1A6827D13A
:101B400022F016021A605A6922F080025A61226C51
:101B50000AB9A26C1AB11A6822F008021A603F236F
:101B60008B40AB60012384F83530002384F8343097
:101B7000236D002B45D0204603B0BDE8F040184748
:101B80001A68D2055EBF1A6822F008021A60C2E71E
:101B9000500327D51B68190331D4636C0BB1204661
:101BA0009847636D6BB3636DDA0719D522684FF4FC
:101BB0001653B7FBF3F7052384F83530136823F089
:101BC00001031360019B0133BB42019302D81368E8
:101BD000DB07F7D4012384F83530002384F8343050
:101BE000E36CC6E71A6812F4807208D1196821F014
:101BF00010011960012384F8353084F83420E36B38
:101C0000CCE703B0F0BD00BF000000202DE9F74F86
:101C1000DFF884915E4A00230D6801249C4004EAA9
:101C2000050CAC4340F0A5804D6805F003044FEA75
:101C300043080326671E06FA08F6012F6FEA060618
:101C400034D8876807EA060ECF6807FA08F747EA2C
:101C50000E078760476827EA0C0EC5F300179F4000
:101C600047EA0E074760C76807EA060E8F6807FA5B
:101C700008F747EA0E07022CC76019D14FEAD30ACA
:101C800000EB8A0A03F0070BDAF820704FEA8B0B9F
:101C90004FF00F0E0EFA0BFE27EA0E0E0F6907FA31
:101CA0000BF747EA0E07CAF8207001E0032CDAD1DF
:101CB000076804FA08F43E40264315F4403F0660E6
:101CC00057D04FF0000ACDF804A0D9F84460314C49
:101CD00046F48046C9F84460D9F8446006F480466A
:101CE0000196019E23F0030606F1804606F59C3618
:101CF00003F0030ED6F808804FEA8E0E0F2707FA7E
:101D00000EF7A04228EA07073AD004F58064A04203
:101D100038D004F58064A04236D004F58064A04237
:101D200034D004F58064A0420CBF0424072404FAD4
:101D30000EF43C43B46094686FEA0C06EF0254BFA3
:101D400034404CEA04049460D468AF0254BF344079
:101D50004CEA0404D4605468AF0354BF34404CEAE6
:101D6000040454601468ED0354BF34404CEA040486
:101D700014600133102B7FF44FAF03B0BDE8F08F38
:101D80005446D4E70124D2E70224D0E70324CEE767
:101D9000003C014000000240003802400AB181616D
:101DA00070470904FBE77047044A5169014208B5CE
:101DB00002D05061FFF7F7FF08BD00BF003C0140B3
:101DC00001684B6913F480634FF0000210D06FF488
:101DD00080634B612023026380F83D3080F83E2011
:101DE000036C80F83C2043F0040303640120704737
:101DF000184670472DE9F84606460F4691461D469F
:101E00004FEA114A3368BAF1010F0CBF5C699C6953
:101E100027EA0404A4B2B4FA84F46409A14501D009
:101E2000002017E06A1CEED001F018FC089BC01AD5
:101E3000A84201D8002DE5D100232022336386F883
:101E40003D2086F83E30326C86F83C3042F020026D
:101E500032640120BDE8F8862DE9F04104460F46C2
:101E6000164698462568686927EA000080B2B8B12E
:101E70006B695A0516D52B6843F400732B606FF419
:101E800080636B6120220023236384F83D2084F863
:101E90003E30226C42F00402226484F83C3001207F
:101EA000BDE8F081731CDED001F0D8FBA0EB080088
:101EB000B04201D8002ED5D100232022236384F81C
:101EC0003D2084F83E30226C42F02002E4E770B5F9
:101ED00004460D46164621684B6913F0400301D0B5
:101EE000002010E04A69D2060ED56FF010024A6158
:101EF0002022236384F83D2084F83E30226C226443
:101F000084F83C30012070BD01F0A8FB801BA84282
:101F100001D8002DDFD100232022236384F83D2047
:101F200084F83E30226C42F02002E8E770B50446A7
:101F30000D46164623685B695B0701D5002070BD1E
:101F40002046FFF73DFFA8B96A1CF3D001F086FBDD
:101F5000801BA84201D8002DECD10023202223634E
:101F600084F83D2084F83E30226C84F83C3042F006
:101F7000200222640120E2E770B504460D461646B1
:101F800023685B691B0601D5002070BD2046FFF762
:101F900017FFA8B96A1CF3D001F060FB801BA842B0
:101FA00001D8002DECD100232022236384F83D20AA
:101FB00084F83E30226C84F83C3042F020022264E7
:101FC0000120E2E72DE9F0431546026885B0DDE91E
:101FD0000C789946136843F4807313600E463B46B1
:101FE000CDF8008000224FF001110446FFF702FFF8
:101FF000236838B11B68DB0502D54FF400732364F6
:1020000003200AE006F0FE061E61194943463A46DF
:102010002046FFF721FF18B1012005B0BDE8F0838D
:10202000236803905A6903929B6903934246394699
:102030002046039BFFF7A0FF40B1236C042B01BF98
:102040002268136843F400731360E5E7B9F1010FE8
:10205000236802D1EDB21D61DFE72A0A1A61394611
:1020600042462046FFF788FF0028E6D12368F1E7C3
:10207000020001002DE9FF479A46036815461A68D9
:1020800042F480621A601A68DDE90C7842F48072CA
:102090001A600E463B46CDF8008000224FF0011139
:1020A0000446FFF7A7FE236848B11B68DB0502D58D
:1020B0004FF400732364032004B0BDE8F0875FFA97
:1020C00086F906F0FE061E612A4943463A46204636
:1020D000FFF7C2FE08B10120EEE7236803905A69BA
:1020E00003929B690393424639462046039BFFF7C0
:1020F00043FF40B1236C042B01BF2268136843F4F3
:1021000000731360E7E7BAF1010F23681AD1EDB24B
:102110001D61424639462046FFF72EFF0028E9D1CF
:102120002268136843F4807313604FF00111024674
:10213000CDF800803B462046FFF75CFE226860B188
:102140001368B3E72A0A1A61394642462046FFF768
:1021500013FF0028CED12368D9E749F001031361AA
:10216000044943463A462046FFF776FE003818BF3A
:102170000120A1E70200010070B5044608B9012062
:1021800070BD90F83D3003F0FF021BB980F83C2091
:10219000FEF7BEFE242384F83D3023681A6822F03F
:1021A00001021A601A6842F400421A601A6822F4A6
:1021B00000421A6000F09AFC3F4B65689D4294BF54
:1021C0003E4B3F4B98428CBF00230123002BD6D1BE
:1021D0002268394E53683B49B0FBF1F123F03F03CD
:1021E0000B43B542536088BF4FF49676136A88BF9D
:1021F000714323F03F0384BF4FF47A76B1FBF6F1CD
:10220000013119431162D169431E2B4821F44F411A
:10221000854221F0FF0132D86D0040F6FC70B3FB1F
:10222000F5F30133034242D0C3F30B030B43D361F5
:10223000D4E907301168034321F0C0010B43136058
:102240009168D4E9030321F40341034321F0FF0122
:102250000B439360D4E90530D168034321F0FF01BB
:102260000B43D360136843F0010313600020202365
:10227000206484F83D30206384F83E0080E7A06845
:1022800050B905EB4505B3FBF5F30133C3F30B037D
:102290007BB143F40043C9E719204543B3FBF5F391
:1022A0000133C3F30B0323B143F44043BEE70423DC
:1022B000BCE70123BAE700BFA08601007F841E00AF
:1022C000FF083D0040420F002DE9F74304469946C0
:1022D0000C9E0F46904601F0C1F994F83D30202B3A
:1022E000054603D0022003B0BDE8F08300903C49CE
:1022F000192301222046FFF77DFD0028F2D194F832
:102300003C30012BEED02068012384F83C30036878
:10231000D9075EBF036843F001030360036823F439
:1023200000630360212384F83D30402384F83E306D
:10233000002323640A9B6362BDF82C306385638DA0
:102340002385284BE362CDE900654B46424639467A
:102350002046FFF737FE00282AD00120C3E7FFF709
:102360000BFE40B1236C042B01BF2268136843F4B9
:1023700000731360F1E7636A27681A4612F8011BBD
:1023800039616262628D218D013A92B262857A6909
:10239000481E80B2520720850AD548B15A783A6162
:1023A00002336362638D013B02399BB221856385F1
:1023B000238D2A4631462046002BD0D1FFF7B6FDAB
:1023C0000028CFD12268136843F4007313602023E0
:1023D00084F83D3084F83C0084F83E0083E700BF79
:1023E000020010000000FFFF2DE9F043044687B013
:1023F0009946109F0D46904601F030F994F83D3013
:10240000202B064604D00225284607B0BDE8F083FD
:1024100000907649192301222046FFF7EBFC0028A3
:10242000F1D194F83C30012BEDD02068012384F8E1
:102430003C300368DB075EBF036843F001030360C1
:10244000036823F400630360222384F83D304023B3
:1024500084F83E30002323640E9B6362BDF83C3059
:102460006385638D2385624BE3622946CDE900765F
:102470004B4642462046FFF7FDFD054608B10125C3
:10248000C2E7228D2368B2B902905A6902929A6912
:102490000292029A1A6842F400721A60DFF85481BC
:1024A000238D002B2CD1202284F83D2084F83C3051
:1024B00084F83E30A8E7012A0AD11A6822F4806223
:1024C0001A6003905A6903929A690392039AE1E7AA
:1024D000022A0ED11A6822F480621A601A6842F445
:1024E00000621A6004905A6904929B690493049BE9
:1024F000D4E705905A6905929B690593059BCDE742
:10250000032B56D8012B15D1324639462046FFF70A
:10251000DEFC0028B3D123681A69636A1A70636A03
:1025200001336362238D013B2385638D013B9BB2A5
:102530006385B5E7022B00963B464FF0000241460B
:10254000204619D1FFF756FC002898D123681A6855
:1025500042F400721A601A69636A1A70626A531C44
:102560006362238D013B2385638D013B9BB26385B1
:1025700023681B695370D2E7FFF73CFC00287FF407
:102580007EAF23681A6822F480621A601A69636A4F
:102590001A70636A009601336362238D013B2385C1
:1025A000638D013B9BB2638502463B464146204614
:1025B000C8E7324639462046FFF789FC00287FF4F9
:1025C0005EAF23681A69636A1A70626A531C636299
:1025D000238D013B2385638D013B9BB2638523687B
:1025E000596949077FF55CAFC3E700BF02001000DF
:1025F0000000FFFF040001002DE9F341044640B351
:102600000368DD0710D4236898075ED423681A078F
:1026100000F1A08023685B0700F1C080A06900285A
:1026200040F0288100202BE08F4B9A6802F00C02CA
:10263000042A07D09A6802F00C02082A0BD15A68C3
:10264000510208D5884B1B689A03DCD56368002BC0
:10265000D9D1012014E06268B2F5803F13D11A6825
:1026600042F480321A6000F0F9FF7F4E054633686D
:102670009B03C8D400F0F2FF401B6428F7D9032065
:1026800002B0BDE8F081784DB2F5A02F2B6807D1DC
:1026900043F480232B602B6843F480332B60E2E704
:1026A00023F480332B602B6823F480232B60002AD3
:1026B000D9D100F0D3FF06462B689F03A3D500F0C5
:1026C000CDFF801B6428F7D9D9E7674B9A6812F0D1
:1026D0000C0F07D09A6802F00C02082A11D15B682F
:1026E0005E020ED4604A13689D0702D5E368012B91
:1026F000AFD11368216923F0F80343EAC1031360E3
:1027000084E7E268594BB2B101221A6000F0A6FFDB
:10271000554D06462B68980707D52B68226923F08C
:10272000F80343EAC2032B6070E700F097FF801BB9
:102730000228EFD9A3E71A6000F090FF4A4E054641
:10274000336899077FF562AF00F088FF401B0228CD
:10275000F6D994E76269454B82B10122C3F8802E15
:1027600000F07CFF404E0546736F9F073FF552AF68
:1027700000F074FF401B0228F6D980E7C3F8802ED2
:1027800000F06CFF384E0546736F98077FF542AF37
:1027900000F064FF401B0228F6D970E7324B1A6C38
:1027A00012F0805228D101921A6C42F080521A64C1
:1027B0001B6C03F080530193019B01272C4D2B6868
:1027C000D9051BD5A368284D012B27D12B6F43F0CA
:1027D00001032B6700F042FF234E054641F2883883
:1027E000336F9B0739D5002F3FF418AF1E4A136C87
:1027F00023F08053136411E70027DFE72B6843F4CD
:1028000080732B6000F02AFF06462B68DA05D9D4C6
:1028100000F024FF801B0228F7D930E7052B04D1F4
:102820002B6F43F004032B67D0E72A6F22F00102DD
:102830002A672A6F22F004022A67002BCAD100F00F
:102840000DFF41F2883806462B6F9807CBD500F074
:1028500005FF801B4045F7D911E700F0FFFE401B44
:102860004045BDD90BE700BF003802400000474299
:1028700000700040364DAB6803F00C03082B3DD0D0
:10288000344B002202281A662BD100F0E7FE0646E0
:102890002B6899011FD4D4E907321343626A43EAD3
:1028A0008213E26A43EA0263A26A5208013A43EAE7
:1028B00002436B60274B264D01221A6600F0CEFEC4
:1028C00004462B689A013FF5ADAE00F0C7FE001B31
:1028D0000228F6D9D3E600F0C1FE801B0228D7D922
:1028E000CDE600F0BBFE04462B689B017FF59AAE57
:1028F00000F0B4FE001B0228F6D9C0E601283FF420
:10290000BFAE6B68E26903F4800191427FF4A1AE2F
:10291000216A03F03F028A427FF49BAE616A47F668
:10292000C0721A40B2EB811F7FF493AEA26A5208C4
:1029300003F44031013AB1EB024F7FF48AAEE26A10
:1029400003F07063B3EB026F3FF46CAE81E600BF3F
:102950000038024000004742134908B58B6803F075
:102960000C03042B1CD0082B1CD14A684B68496807
:1029700013F4800314BF0D480D48C1F3881118BF2C
:10298000002302F03F02A1FB0001FEF747F8064BCF
:102990005B68C3F3014301335B00B0FBF3F008BD98
:1029A0000248FCE70248FAE70038024000127A00C9
:1029B0000024F4002DE9F0410D46044610B9012031
:1029C000BDE8F081444B1A6802F007028A4228D31E
:1029D000226897072DD4D00741D43F4B1A6802F0E4
:1029E0000702AA4266D8226851076CD4130707D59C
:1029F0003A4A2169936823F4604343EAC103936030
:102A0000FFF7AAFF354B364A9B68C3F30313D35C29
:102A1000D840344B1860344B186800F0D5FD0020C6
:102A2000CEE7CAB21A701B6803F007038B42C6D107
:102A3000CEE72A4B12F0040F1EBF996841F4E05113
:102A40009960160742BF996841F460419960234933
:102A5000A0688B6823F0F00303438B60BBE76268D8
:102A60001E4B012A1CD11B6813F4003FA7D01B4E3C
:102A7000B36823F003031343B36000F0EFFD41F2AA
:102A800088380746B368626803F00C03B3EB820F23
:102A9000A3D000F0E3FDC01B4045F3D903208FE72E
:102AA000911E01291B6802D813F0007FDEE713F0A6
:102AB000020FDBE7EAB21A701B6803F00703AB42B0
:102AC0007FF47DAF8FE70549E0688B6823F4E0531E
:102AD00003438B608AE700BF003C0240003802409D
:102AE0000D4000080000002008000020044B054AAB
:102AF0009B68C3F38223D35C034A1068D8407047B5
:102B0000003802401D40000800000020044B054A28
:102B10009B68C3F34233D35C034A1068D8407047C4
:102B2000003802401D4000080000002030B590F839
:102B30003C30012B4FF002032AD080F83D3003686F
:102B40000D685C689A6824F070042C435C60114C3A
:102B5000A34212D0B3F1804F0FD0A4F57C44A3421E
:102B60000BD004F58064A34207D004F58064A3422F
:102B700003D004F59A34A34204D1496822F08002BC
:102B80000A439A60012380F83D30002380F83C30EE
:102B9000184630BD000001407047704790F83D3046
:102BA000012B28D1022380F83D300368DA6842F017
:102BB0000102DA60114A934212D0B3F1804F0FD074
:102BC000A2F57C4293420BD002F58062934207D07B
:102BD00002F58062934203D002F59A32934204D107
:102BE0009A6802F00702062A03D01A6842F001022E
:102BF0001A60002070470120704700BF00000140AC
:102C00000368DA6822F00102DA60196A41F21112EF
:102C1000114208D1196A40F24442114202BF1A68B7
:102C200022F001021A60012380F83D300020704735
:102C3000704770477047704703681A69910710B56D
:102C400004460ED5DA6892070BD56FF002021A61BE
:102C5000012202779B699B0777D0FFF7EAFF0023E9
:102C6000237723681A69500710D5DA6851070DD504
:102C70006FF004021A61022222779B6913F4407FED
:102C8000204668D0FFF7D5FF0023237723681A6911
:102C900012070FD5DA6810070CD56FF008021A6119
:102CA00004222277DB69990720465AD0FFF7C1FF3B
:102CB0000023237723681A69D20610D5DA68D00674
:102CC0000DD56FF010021A6108222277DB6913F428
:102CD000407F20464BD0FFF7ACFF002323772368CB
:102CE0001A69D10708D5DA68D20705D56FF0010255
:102CF0001A612046FEF72AFA23681A69100608D5D9
:102D0000DA68110605D56FF080021A612046FFF7D8
:102D100044FF23681A69520608D5DA68500605D5BB
:102D20006FF040021A612046FFF785FF23681A6999
:102D3000910622D5DA6892061FD56FF02002204650
:102D40001A61BDE81040FFF727BFFFF771FF20466B
:102D5000FFF770FF83E7FFF76BFF2046FFF76AFF7F
:102D600092E7FFF765FF2046FFF764FFA0E7FFF754
:102D70005FFF2046FFF75EFFAFE710BD244A036800
:102D800090420ED0B0F1804F0BD0A2F57C42904221
:102D900007D002F58062904203D002F58062904233
:102DA00015D14A6823F070031343194A904219D091
:102DB000B0F1804F16D0A2F57C42904212D002F5BD
:102DC000806290420ED002F5806290420AD0114A91
:102DD000904207D002F58062904203D002F58062F3
:102DE000904203D1CA6823F4407313434A6923F025
:102DF0008003134303608B68C3620B688362044BD8
:102E0000984204BF0B69036301234361704700BF0D
:102E1000000001400040014010B5044630B390F876
:102E20003D3003F0FF021BB980F83C20FEF7E2FBC7
:102E30000223206884F83D30211DFFF79FFF012306
:102E400084F84630002084F83E3084F83F3084F81F
:102E5000403084F8413084F8423084F8433084F8BC
:102E6000443084F8453084F83D3010BD0120FCE743
:102E700010B58468114324F47F4441EA03232343BB
:102E8000836010BD70B590F83C30012B04464FF0C4
:102E9000020300F09180012280F83D3080F83C2050
:102EA0000068836823F47F4323F0770383600B6813
:102EB000602B52D033D8402B67D016D8202B0DD0A2
:102EC0000AD833F0100109D0012384F83D300023E3
:102ED00084F83C30104670BD302BF5D1826822F06A
:102EE0007002134343F0070317E0502BECD14A68FC
:102EF000CE68016A056A25F001050562836921F043
:102F00000A0123F0F00343EA06130A4383610262D5
:102F1000836823F0700343F05703836011E0B3F537
:102F2000805F0ED0B3F5005F0DD0702BCCD1CB6895
:102F3000D1E90121FFF79CFF2268936843F07703F2
:102F400093600022C0E7CB68D1E90121FFF790FF31
:102F50002268936843F48043F2E74D68CE68016AC3
:102F600021F0100101628269036A22F4704223F0A9
:102F7000A00343EA051342EA0632826103628368D2
:102F800023F0700343F06703C7E74A68CE68016A1D
:102F9000056A25F001050562836921F00A0123F025
:102FA000F00343EA06130A4383610262836823F055
:102FB000700343F04703B0E71A468BE7026802F15B
:102FC0000C0353E8003F23F490730C3242E80031C5
:102FD00002680029F2D102F1140353E8003F23F004
:102FE000010302F1140C4CE800310029F3D1036B0A
:102FF000012B0BD102F10C0353E8003F23F0100327
:1030000002F10C0C4CE800310029F3D1202380F8A8
:103010003E300023036370470268C168136923F4DC
:1030200040530B4370B51361054683680069D1684E
:10303000034368690343E86921F4164121F00C0158
:1030400003430B43D3605369A96923F440730B43D3
:1030500053611F4B9A4203D003F580639A4223D1F8
:10306000FFF754FDEB691921B3F5004FD5E9004690
:10307000A0FB01011BD1B2194FF000035B41FDF72A
:10308000CDFC6421B0FBF1F501FB1503DB0032330D
:10309000B3FBF1F303F007025B0002EB051203F44C
:1030A000F8731344A36070BDFFF720FDDAE7B200A8
:1030B000B30FFDF7B3FC6422B0FBF2F102FB110386
:1030C0001B013233B3FBF2F303EB0113EAE700BF5A
:1030D0000010014010B5044640B390F83D3003F0B5
:1030E000FF021BB980F83C20FEF7C2FA22682423B5
:1030F00084F83D30D36823F40053D3602046FFF7B3
:103100008BFF23681A6922F490421A615A6922F0EF
:103110002A025A61DA6842F40052DA600020202361
:10312000206484F83D3084F83E3010BD0120FCE777
:1031300038B50446134694F83D20202A32D179B39D
:1031400073B394F83C20012A2CD0012284F83C204F
:10315000606BE38400252122256484F83D20124A17
:10316000A3842162C263114A0264114AC0E9132593
:1031700022680432FEF7FCFB23686FF040021A60FD
:10318000226884F83C5002F1140353E8003F43F0F6
:10319000800302F1140141E800300028F3D138BD6A
:1031A0000120FCE70220FAE7B731000805320008E9
:1031B00011320008704708B50346806B1B681B6816
:1031C00013F480731AD1C384026802F1140353E824
:1031D000003F23F08003143242E8003102680029E6
:1031E000F2D102F10C0353E8003F43F0400302F137
:1031F0000C0040E800310029F3D108BDFFF7DAFFE9
:10320000FBE7704708B5806BFFF7FBFF08BD704711
:1032100008B5806B03685A6990F83D10212912D1D6
:10322000120610D50022C28403F10C0252E8002FCE
:1032300022F0C00203F10C0C4CE800210029F3D16C
:10324000202280F83D205B6990F83E20222A05D19B
:103250005B0603D50023C385FFF7B0FE036C43F084
:1032600010030364FFF7D3FF08BD08B5806B00238C
:10327000C385C384FFF7CBFF08BD704707B58168DE
:10328000836A0268B1F5805F3ED1016900293ED1B1
:103290005268C2F3080223F8022B8362C38D013BFC
:1032A0009BB2C385002B2CD10268D16821F020018C
:1032B000D160D16821F48071D160516921F00101A0
:1032C0005161202280F83E20026B012A026828D139
:1032D000036302F10C0353E8003F23F0100302F1F3
:1032E0000C0C4CE800310029F3D11368DB0605D53E
:1032F00001911368019353680193019B818DFFF73E
:10330000BCFF03B05DF804FB39B9016929B9526803
:10331000D2B21A70836A0133BFE7526802F07F02AB
:10332000F7E7FDF71FFFECE7036837B51A68D968C0
:103330005D6912F00F0F04460CD1950670D58D060D
:103340006ED590F83E30222B64D103B0BDE83040FA
:10335000FFF794BF05F0010001F4907505435FD0BD
:10336000D50705D5CB0542BF236C43F00103236489
:10337000550704D518B1236C43F002032364930767
:1033800004D518B1236C43F004032364150707D553
:1033900001F0200303431EBF236C43F008032364A2
:1033A000236C002B36D0900608D58A0606D594F8F3
:1033B0003E30222B02D12046FFF760FF23685B6975
:1033C000256C03F0400305F008051D43204623D07B
:1033D000FFF7F4FD226853695B0618D502F1140368
:1033E00053E8003F23F0400302F1140040E80031AD
:1033F0000029F3D1A06B50B1724B0365FEF736FB89
:1034000040B1A06B036D03B0BDE8304018472046C3
:10341000FFF7FDFE03B030BDFFF7F9FE2564F9E7C5
:10342000206B012840F09180D50640F18E80C806BF
:1034300040F18B80002201921A6801925A68019231
:10344000019A5A6955064CD5A16B0A68526892B226
:10345000002ADFD0A08D9042DCD9E285CA69B2F59E
:10346000807F36D003F10C0252E8002F22F48072E4
:1034700003F10C0040E800210029F3D103F114020C
:1034800052E8002F22F0010203F1140040E800216D
:103490000029F3D103F1140252E8002F22F0400278
:1034A00003F1140040E800210029F3D1202284F820
:1034B0003E20216303F10C0252E8002F22F010029B
:1034C00003F10C0040E800210029F3D1A06BFEF7C6
:1034D00089FAE38DA18DC91A89B22046FFF7CDFE86
:1034E00098E7E18D8AB2E18D89B2002992D0A18D51
:1034F000891A89B200298DD003F10C0252E8002FFD
:1035000022F4907203F10C0545E800200028F3D165
:1035100003F1140252E8002F22F0010203F1140516
:1035200045E800200028F3D1202284F83E202063C3
:1035300003F10C0252E8002F22F0100203F10C05F7
:1035400045E800200028F3D1C7E7100628D50D066E
:1035500026D594F83D20212A7FF45CAFA168226A29
:10356000B1F5805F17D12169A9B932F8021BC1F307
:10357000080159602262E28C013A92B2E284002A88
:103580007FF448AFDA6822F08002DA60DA6842F04D
:103590004002DA603EE7511C216212785A60EAE785
:1035A00050067FF537AF4A067FF534AFDA6822F070
:1035B0004002DA60202384F83D302046FFF7FAFD10
:1035C00028E700BF6B32000838B50E4A0E4B05469F
:1035D00018784FF47A73B3FBF0F31068B0FBF3F094
:1035E000FEF71CF9044658B90F2D09D802462946A2
:1035F0004FF0FF30FEF7D2F8044B20461D6038BD77
:103600000120FCE70000002004000020080000204A
:1036100008B50B4B1A6842F400721A601A6842F43B
:1036200080621A601A6842F480721A600320FEF702
:10363000A3F80020FFF7C8FFFDF73EFF002008BDFC
:10364000003C0240034A044B11681B780B44136092
:10365000704700BF5002002004000020014B186892
:10366000704700BF5002002038B50446FFF7F6FF50
:10367000631C1CBF054B1B78054618BFE418FFF7F9
:10368000EDFF431BA342FAD338BD00BF0400002066
:10369000014B1868704700BF0C00002070B50D4D3D
:1036A0000D4C641BA4100026A64209D10B4D0C4CF6
:1036B00000F08EFC641BA4100026A64205D170BD4C
:1036C00055F8043B98470136EEE755F8043B984718
:1036D0000136F2E7684000086840000868400008CA
:1036E0006C40000802440346934200D1704703F83F
:1036F000011BF9E70EB400B59CB01DAB029006901B
:103700006FF00041094807910491094953F8042BCF
:1037100005910068019302A900F068F8029B00225D
:103720001A701CB05DF804EB03B070470C00002069
:103730000802FFFF2DE9F0478E689E4282460C4644
:1037400090461F4638D88A8912F4906F32D0256887
:103750000969A5EB0109656905EB450505EBD5751B
:1037600001334B446D109D4238BF1D46530531D582
:10377000294600F063FB064650B90C23CAF8003016
:10378000A38943F04003A3814FF0FF30BDE8F087E9
:1037900021694A4600F0BEFAA38923F4906343F0FE
:1037A0008003A381266165614E44A5EB090526606F
:1037B000A5603E46BE4200D93E462068324641469C
:1037C00000F0B6FAA3689B1BA36023683344236010
:1037D0000020DBE72A4600F0A5FB06460028E1D1E1
:1037E0002169504600F0BEFAC7E700002DE9F04F0E
:1037F00098468B891B069DB007460D4614460ED58C
:103800000B6963B9402100F019FB2860286120B9D9
:103810000C233B604FF0FF30D1E040236B6100236D
:10382000099320238DF82930CDF80C803023DFF860
:10383000A8818DF82A304FF0010923469A4613F8E3
:10384000012B0AB1252AF9D1BAEB040B0BD05B4648
:10385000224629463846FFF76DFF013000F0AA8066
:10386000099A5A4409929AF80030002B00F0A2807D
:1038700000234FF0FF32CDE905230AF1010A04933A
:1038800007938DF853301A935446052214F8011B00
:103890005148FDF74DFA049AD8B9D00644BF202309
:1038A0008DF85330110744BF2B238DF853309AF80D
:1038B00000302A2B15D0079A544600204FF00A0CEE
:1038C000214611F8013B303B092B4ED9B0B107928C
:1038D00014E0A0EB080309FA03F313430493A24690
:1038E000D2E7039B191D1B680391002BBBBF5B42F2
:1038F00042F0020207930793B8BF049223782E2B5D
:103900000CD163782A2B35D1039B1A1D1B680392B7
:10391000002BB8BF4FF0FF3302340593DFF8C8A087
:10392000217803225046FDF703FA40B14023A0EB73
:103930000A0003FA00F0049B03430134049314F8D3
:10394000011B26488DF828100622FDF7F1F9002802
:1039500038D0234B1BBB039B073323F007030833EB
:103960000393099B3344099367E70CFB02320C462F
:103970000120A5E700230134059319464FF00A0CF6
:10398000204610F8012B303A092A03D9002BC5D064
:103990000591C3E70CFB012104460123F0E703ABCB
:1039A00000932A460F4B04A93846AFF30080421C0F
:1039B0000646D6D1AB895B063FF52CAF09981DB002
:1039C000BDE8F08F03AB00932A46064B04A93846A6
:1039D00000F07AF8EBE700BF2D4000083740000800
:1039E0000000000035370008334000082DE9F0479B
:1039F000164699468A680B69DDF820809342B8BF65
:103A00001346336091F8432007460C460AB1013350
:103A100033602368990642BF3368023333602568F8
:103A200015F0060506D104F1190AE36832689B1AFD
:103A3000AB4226DC94F84320131E226818BF0123F2
:103A400092062BD404F1430249463846C047013060
:103A50001ED02368E568326803F00603042B08BF14
:103A6000AD1AA36822690CBF25EAE57500259342CB
:103A7000C4BF9B1AED1800261A34B5421AD1002093
:103A800008E00123524649463846C047013003D179
:103A90004FF0FF30BDE8F0870135C6E7E1185A1C4A
:103AA000302081F84300224494F8451082F84310F6
:103AB0000233C7E70123224649463846C047013052
:103AC000E6D00136D9E700002DE9FF470F7E0C9DB7
:103AD000782F914680460C469A4601F1430207D85A
:103AE000622F0AD8002F00F0D880582F00F0A38052
:103AF00004F1420584F842703AE0A7F16303152B04
:103B0000F6D801A151F823F0613B0008753B00088D
:103B1000F13A0008F13A0008F13A0008F13A0008D9
:103B2000753B0008F13A0008F13A0008F13A000844
:103B3000F13A0008813C0008A53B0008633C0008FE
:103B4000F13A0008F13A0008A33C0008F13A0008F5
:103B5000A53B0008F13A0008F13A00086B3C000868
:103B60002B681A1D1B682A6004F1420584F8423054
:103B70000123A3E020682968060601F104030AD5A1
:103B80000E682B60002E03DA2D23764284F8433032
:103B90005E480A2319E00E682B6010F0400F18BF32
:103BA00036B2EFE72B682068191D2960010601D5A0
:103BB0001E6802E04606FBD51E8854486F2F0CBFD6
:103BC00008230A23002184F843106568A560002DAE
:103BD000A2BF216821F0040121600EB9002D4DD053
:103BE0001546B6FBF3F103FB1167C75D05F8017DD0
:103BF0003746BB420E46F4D9082B0BD12368DE07AB
:103C000008D5236961689942DEBF302305F8013C7D
:103C100005F1FF35521B2261CDF800A04B4603AAE7
:103C200021464046FFF7E2FE01304CD14FF0FF3015
:103C300004B0BDE8F087354881F8457029682368ED
:103C400051F8046B29601D0614D5DF0744BF43F00B
:103C5000200323601EB9236823F020032360102370
:103C6000B0E7236843F0200323607823284884F8D2
:103C70004530E3E7590648BFB6B2E6E71546BBE76D
:103C80002B6826686169181D286035061B6801D5F8
:103C9000196002E07006FBD51980002323611546E8
:103CA000BAE72B681A1D2A601D6862680021284641
:103CB000FDF73EF808B1401B606063682361002394
:103CC00084F84330A8E723692A4649464046D0474E
:103CD0000130ABD023689B0713D4E068039B984264
:103CE000B8BF1846A4E70123324649464046D047AC
:103CF00001309BD00135E36803995B1AAB42F2DCDB
:103D0000EBE7002504F11906F5E700BF3E40000887
:103D10004F4000080A44914200F1FF3300D1704740
:103D200010B511F8014B03F8014F9142F9D110BDC4
:103D3000884210B501EB020402D98442234607D819
:103D4000431EA14208D011F8012B03F8012FF8E718
:103D5000024401468A4200D110BD13F8014D02F819
:103D6000014DF7E737B5002944D051F8043C0190E4
:103D7000002BA1F10404B8BFE41800F013F91E4AA7
:103D80000198136833B96360146003B0BDE8304034
:103D900000F00EB9A34208D9256861198B4201BF12
:103DA00019685B6849192160EDE71A465B680BB139
:103DB000A342FAD911685518A5420BD124682144B1
:103DC0005418A3421160E0D11C685B685360214421
:103DD0001160DAE702D90C230360D6E72568611980
:103DE0008B4204BF19685B68636004BF4919216096
:103DF0005460CAE703B030BD5402002070B50E4EC7
:103E00000C463168054611B900F0BCF83060214617
:103E1000284600F0B7F8431C0AD0C41C24F0030461
:103E2000A04207D0211A284600F0ACF8013001D199
:103E30004FF0FF34204670BD580200202DE9F041BC
:103E4000CD1C25F0030508350C2D38BF0C25002DA1
:103E5000074601DBA94205D90C233B60002630460A
:103E6000BDE8F0812E4E00F09DF833681C4634BB4F
:103E700029463846FFF7C2FF431C04464DD134683B
:103E80002646002E40D123683146384604EB03080D
:103E900000F078F880453AD1216803356D1A25F095
:103EA000030508350C2D38BF0C2529463846FFF789
:103EB000A5FF01302BD023682B4423600EE022683D
:103EC000521B1ED40B2A16D96119A342256018BFB4
:103ED0005960636808BF316062514B60384604F135
:103EE0000B0600F065F826F00706231DF21AB6D07F
:103EF0009B1BA350B3E76268A3420CBF32605A60B9
:103F0000ECE723466468B2E734467668B9E70C23E9
:103F10003B60384600F04CF8A1E72560DEE700BFC3
:103F2000540200202DE9F041804614460E4621B986
:103F3000BDE8F0411146FFF781BF2AB9FFF712FF34
:103F400025462846BDE8F08100F038F8844207464F
:103F500002D8B4EB500F12D821464046FFF76EFF4F
:103F600005460028EDD0BC422246314628BF3A46DD
:103F7000FFF7D0FE31464046FFF7F4FEE1E7354655
:103F8000DFE7000038B5064D0023044608462B60E5
:103F9000FDF7D0FA431C02D12B6803B1236038BD72
:103FA0005C020020014800F011B800BF6002002050
:103FB000014800F00CB800BF6002002051F8043C3A
:103FC000181F002BBCBF0B58C018704770477047B4
:103FD000F8B500BFF8BC08BC9E467047F8B500BFF6
:083FE000F8BC08BC9E467047C6
:103FE80025302E35662C25302E35662C25302E357D
:103FF800662C25302E35662C25302E35662C25303E
:104008002E35660A000000000000000000010203CF
:104018000406070809000000000102030400061056
:104028001600061016232D302B2000686C4C0065F6
:1040380066674546470030313233343536373839CC
:1040480041424344454600303132333435363738FF
:084058003961626364656600D2
:08406000ECC9FF7F0100000024
:04406800C501000886
:04406C00A1010008A6
:104070000024F400010000001000000010000020E7
:104080000000000000000000000000000000000030
:104090000000000000000000000000000000000020
:1040A0000000000000000000000000000000000010
:1040B0000000000000000000000000000000000000
:1040C00000000000000000000000000000000000F0
:1040D00000000000000000000000000000000000E0
:0400000508001725B3
:00000001FF
