:020000040800F2
:1000000000000220F91A0008851700088B17000865
:1000100091170008971700089D17000800000000BE
:10002000000000000000000000000000A31700080E
:10003000B117000800000000BF170008CD17000826
:10004000491B0008491B0008491B0008491B000800
:10005000491B0008491B0008491B0008D917000864
:10006000491B0008491B0008491B0008491B0008E0
:10007000491B0008491B0008491B0008491B0008D0
:10008000491B0008E9170008491B00080000000090
:10009000000000000000000000000000491B0008F4
:1000A000491B0008491B0008491B0008491B0008A0
:1000B000491B0008FD170008491B0008491B0008E0
:1000C000491B0008491B0008491B0008491B000880
:1000D000491B0008491B0008111800080000000017
:1000E000491B0008491B0008491B000800000000CC
:1000F000000000000000000000000000491B000894
:1001000000000000491B0008491B0008491B0008AB
:1001100000000000000000000000000000000000DF
:10012000491B0008491B0008491B0008491B00081F
:10013000491B000800000000000000000000000053
:10014000000000000000000000000000491B000843
:10015000491B0008491B0008491B0008491B0008EF
:10016000491B0008491B00080000000000000000B7
:10017000000000000000000000000000000000007F
:1001800000000000491B0008000000000000000003
:08019000491B0008491B00088F
:1001A00010B5054C237833B9044B13B10448AFF3B1
:1001B00000800123237010BD7000002000000000AB
:1001C000BC65000808B5034B1BB103490348AFF3F6
:1001D000008008BD0000000074000020BC6500081D
:1001E00081F0004102E000BF83F0004330B54FEAE8
:1001F00041044FEA430594EA050F08BF90EA020F55
:100200001FBF54EA000C55EA020C7FEA645C7FEAE7
:10021000655C00F0E2804FEA5454D4EB5555B8BF0A
:100220006D420CDD2C4480EA020281EA030382EA7B
:10023000000083EA010180EA020281EA0303362D0D
:1002400088BF30BD11F0004F4FEA01314FF4801CE0
:100250004CEA113102D0404261EB410113F0004FF2
:100260004FEA03334CEA133302D0524263EB4303A9
:1002700094EA050F00F0A780A4F10104D5F1200E47
:100280000DDB02FA0EFC22FA05F2801841F10001A2
:1002900003FA0EF2801843FA05F359410EE0A5F176
:1002A00020050EF1200E012A03FA0EFC28BF4CF0A7
:1002B000020C43FA05F3C01851EBE37101F000455D
:1002C00007D54FF0000EDCF1000C7EEB00006EEB6A
:1002D0000101B1F5801F1BD3B1F5001F0CD34908F4
:1002E0005FEA30004FEA3C0C04F101044FEA44524B
:1002F00012F5800F80F09A80BCF1004F08BF5FEAD2
:10030000500C50F1000041EB045141EA050130BDB1
:100310005FEA4C0C404141EB0101013C28BFB1F5C3
:10032000801FE9D291F0000F04BF01460020B1FA0E
:1003300081F308BF2033A3F10B03B3F120020CDAE1
:100340000C3208DD02F1140CC2F10C0201FA0CF0BF
:1003500021FA02F10CE002F11402D8BFC2F1200C24
:1003600001FA02F120FA0CFCDCBF41EA0C019040DA
:10037000E41AA2BF01EB0451294330BD6FEA040423
:100380001F3C1CDA0C340EDC04F11404C4F120020E
:1003900020FA04F001FA02F340EA030021FA04F320
:1003A00045EA030130BDC4F10C04C4F1200220FA77
:1003B00002F001FA04F340EA0300294630BD21FAB5
:1003C00004F0294630BD94F0000F83F4801306BF7B
:1003D00081F480110134013D4EE77FEA645C18BF6F
:1003E0007FEA655C29D094EA050F08BF90EA020F06
:1003F00005D054EA000C04BF1946104630BD91EAFE
:10040000030F1EBF0021002030BD5FEA545C05D100
:100410004000494128BF41F0004130BD14F580043F
:100420003CBF01F5801130BD01F0004545F0FE41B3
:1004300041F470014FF0000030BD7FEA645C1ABFE8
:10044000194610467FEA655C1CBF0B46024650EA1F
:10045000013406BF52EA033591EA030F41F400214B
:1004600030BD00BF90F0000F04BF0021704730B5D1
:100470004FF4806404F132044FF000054FF00001A6
:1004800050E700BF90F0000F04BF0021704730B567
:100490004FF4806404F1320410F0004548BF40423C
:1004A0004FF000013EE700BF42004FEAE2014FEA91
:1004B00031014FEA02701FBF12F07F4393F07F4F6C
:1004C00081F06051704732F07F4208BF704793F06F
:1004D0007F4F04BF41F40021704730B54FF4607482
:1004E00001F0004521F000411CE700BF50EA010285
:1004F00008BF704730B54FF000050AE050EA01022E
:1005000008BF704730B511F0004502D5404261EB9D
:1005100041014FF4806404F132045FEA915C3FF4DE
:10052000D8AE4FF003025FEADC0C18BF03325FEA7B
:10053000DC0C18BF033202EBDC02C2F1200300FA2C
:1005400003FC20FA02F001FA03FE40EA0E0021FA51
:1005500002F11444BDE600BF70B54FF0FF0C4CF43F
:10056000E06C1CEA11541DBF1CEA135594EA0C0FF1
:1005700095EA0C0F00F0DEF82C4481EA030621EA2C
:100580004C5123EA4C5350EA013518BF52EA033567
:1005900041F4801143F4801338D0A0FB02CE4FF019
:1005A0000005E1FB02E506F00042E0FB03E54FF049
:1005B0000006E1FB03569CF0000F18BF4EF0010E41
:1005C000A4F1FF04B6F5007F64F5407404D25FEA3D
:1005D0004E0E6D4146EB060642EAC62141EA5551F0
:1005E0004FEAC52040EA5E504FEACE2EB4F1FD0C32
:1005F00088BFBCF5E06F1ED8BEF1004F08BF5FEAB0
:10060000500E50F1000041EB045170BD06F0004661
:1006100046EA010140EA020081EA0301B4EB5C040E
:10062000C2BFD4EB0C0541EA045170BD41F4801106
:100630004FF0000E013C00F3AB8014F1360FDEBF2B
:10064000002001F0004170BDC4F10004203C35DA07
:100650000C341BDC04F11404C4F1200500FA05F38A
:1006600020FA04F001FA05F240EA020001F000422B
:1006700021F0004110EBD37021FA04F642EB0601A1
:100680005EEA430E08BF20EAD37070BDC4F10C04CB
:10069000C4F1200500FA04F320FA05F001FA04F28F
:1006A00040EA020001F0004110EBD37041F100017B
:1006B0005EEA430E08BF20EAD37070BDC4F1200586
:1006C00000FA05F24EEA020E20FA04F301FA05F2EE
:1006D00043EA020321FA04F001F0004121FA04F296
:1006E00020EA020000EBD3705EEA430E08BF20EA66
:1006F000D37070BD94F0000F0FD101F000464000A0
:1007000041EB010111F4801F08BF013CF7D041EA21
:10071000060195F0000F18BF704703F00046520025
:1007200043EB030313F4801F08BF013DF7D043EAF6
:100730000603704794EA0C0F0CEA135518BF95EAAC
:100740000C0F0CD050EA410618BF52EA4306D1D133
:1007500081EA030101F000414FF0000070BD50EA52
:10076000410606BF1046194652EA430619D094EADC
:100770000C0F02D150EA013613D195EA0C0F05D1C6
:1007800052EA03361CBF104619460AD181EA03011A
:1007900001F0004141F0FE4141F470014FF00000D2
:1007A00070BD41F0FE4141F4780170BD70B54FF06D
:1007B000FF0C4CF4E06C1CEA11541DBF1CEA1355ED
:1007C00094EA0C0F95EA0C0F00F0A7F8A4EB0504CF
:1007D00081EA030E52EA03354FEA013100F08880C6
:1007E0004FEA03334FF0805545EA131343EA12638F
:1007F0004FEA022245EA111545EA10654FEA002644
:100800000EF000419D4208BF964244F1FD0404F5FC
:10081000407402D25B084FEA3202B61A65EB030558
:100820005B084FEA32024FF480104FF4002CB6EB15
:10083000020E75EB030E22BFB61A754640EA0C0095
:100840005B084FEA3202B6EB020E75EB030E22BFD5
:10085000B61A754640EA5C005B084FEA3202B6EB16
:10086000020E75EB030E22BFB61A754640EA9C00D5
:100870005B084FEA3202B6EB020E75EB030E22BFA5
:10088000B61A754640EADC0055EA060E18D04FEA63
:10089000051545EA16754FEA06164FEAC30343EA03
:1008A00052734FEAC2025FEA1C1CC0D111F4801FD0
:1008B0000BD141EA00014FF000004FF0004CB6E7C9
:1008C00011F4801F04BF01430020B4F1FD0C88BF68
:1008D000BCF5E06F3FF6AFAEB5EB030C04BFB6EB73
:1008E000020C5FEA500C50F1000041EB045170BD66
:1008F0000EF0004E4EEA113114EB5C04C2BFD4EB93
:100900000C0541EA045170BD41F480114FF0000E16
:10091000013C90E645EA060E8DE60CEA135594EA92
:100920000C0F08BF95EA0C0F3FF43BAF94EA0C0F95
:100930000AD150EA01347FF434AF95EA0C0F7FF40A
:1009400025AF104619462CE795EA0C0F06D152EA5E
:1009500003353FF4FDAE1046194622E750EA410642
:1009600018BF52EA43067FF4C5AE50EA41047FF453
:100970000DAF52EA43057FF4EBAE12E74FEA4102B6
:10098000B2F1E04324BFB3F5001CDCF1FE5C0DD9ED
:1009900001F0004C4FEAC0024CEA5070B2F1004F37
:1009A00040EB830008BF20F00100704711F0804F3A
:1009B00021D113F13872BCBF01F00040704741F4FF
:1009C00080114FEA5252C2F11802C2F1200C10FA03
:1009D0000CF320FA02F018BF40F001004FEAC123E7
:1009E0004FEAD32303FA0CFC40EA0C0023FA02F38B
:1009F0004FEA4303CCE77FEA625307D150EA013361
:100A00001EBF4FF0FE4040F44000704701F0004030
:100A100040F0FE4040F40000704700BF53B94AB9AF
:100A2000002908BF00281CBF4FF0FF314FF0FF30F6
:100A300000F074B9ADF1080C6DE904CE00F006F8D1
:100A4000DDF804E0DDE9022304B070472DE9F0474A
:100A5000089D04468E46002B4DD18A42944669D9A2
:100A6000B2FA82F252B101FA02F3C2F1200120FA85
:100A700001F10CFA02FC41EA030E94404FEA1C48D3
:100A8000210CBEFBF8F61FFA8CF708FB16E341EACF
:100A9000034306FB07F199420AD91CEB030306F155
:100AA000FF3080F01F81994240F21C81023E634476
:100AB0005B1AA4B2B3FBF8F008FB103344EA03441A
:100AC00000FB07F7A7420AD91CEB040400F1FF332F
:100AD00080F00A81A74240F207816444023840EA6C
:100AE0000640E41B00261DB1D4400023C5E90043A5
:100AF0003146BDE8F0878B4209D9002D00F0EF8028
:100B00000026C5E9000130463146BDE8F087B3FA5A
:100B100083F6002E4AD18B4202D3824200F2F98042
:100B2000841A61EB030301209E46002DE0D0C5E945
:100B3000004EDDE702B9FFDEB2FA82F2002A40F091
:100B40009280A1EB0C014FEA1C471FFA8CFE012694
:100B5000200CB1FBF7F307FB131140EA01410EFB38
:100B600003F0884208D91CEB010103F1FF3802D2DF
:100B7000884200F2CB804346091AA4B2B1FBF7F0D9
:100B800007FB101144EA01440EFB00FEA64508D9FC
:100B90001CEB040400F1FF3102D2A64500F2BB8039
:100BA0000846A4EB0E0440EA03409CE7C6F1200788
:100BB000B34022FA07FC4CEA030C20FA07F401FACE
:100BC00006F31C43F9404FEA1C4900FA06F3B1FB57
:100BD000F9F8200C1FFA8CFE09FB181140EA0141BC
:100BE00008FB0EF0884202FA06F20BD91CEB010159
:100BF00008F1FF3A80F08880884240F28580A8F1B1
:100C000002086144091AA4B2B1FBF9F009FB101102
:100C100044EA014100FB0EFE8E4508D91CEB0101A0
:100C200000F1FF346CD28E456AD90238614440EA43
:100C30000840A0FB0294A1EB0E01A142C846A646C3
:100C400056D353D05DB1B3EB080261EB0E0101FA4C
:100C500007F722FA06F3F1401F43C5E900710026A9
:100C60003146BDE8F087C2F12003D8400CFA02FCFF
:100C700021FA03F3914001434FEA1C471FFA8CFE0F
:100C8000B3FBF7F007FB10360B0C43EA064300FBFF
:100C90000EF69E4204FA02F408D91CEB030300F19D
:100CA000FF382FD29E422DD9023863449B1B89B254
:100CB000B3FBF7F607FB163341EA034106FB0EF3DD
:100CC0008B4208D91CEB010106F1FF3816D28B428A
:100CD00014D9023E6144C91A46EA004638E72E4656
:100CE000284605E70646E3E61846F8E64B45A9D24E
:100CF000B9EB020864EB0C0E0138A3E74646EAE7BD
:100D0000204694E74046D1E7D0467BE7023B61446A
:100D100032E7304609E76444023842E7704700BFD3
:100D2000034613F8012B002AFBD1181A013870472B
:100D300001F0FF01102A2BDB10F0070F08D010F88C
:100D4000013B013A8B422DD010F0070F42B3F6D190
:100D5000F0B441EA012141EA014122F007047FF0A9
:100D600000070023F0E80256083C85EA010586EA00
:100D7000010685FA47F5A3FA87F586FA47F6A5FA3C
:100D800087F68EB9EED1F0BC01F0FF0102F0070248
:100D900032B110F8013B013A83EA010313B1F8D1F3
:100DA0000020704701387047002D06BF35460338D4
:100DB000073815F0010F07D1013015F4807F02BF0D
:100DC000013015F4C03F0130F0BC0138704700BF5E
:100DD00080B582B000AF00237B600C4B1B6B0B4ACD
:100DE00043F400131363094B1B6B03F400137B6084
:100DF0007B6800220021112000F083FF112000F009
:100E00009CFF00BF0837BD4680BD00BF00380240D0
:100E100080B58AB000AF07F1140300221A605A604F
:100E20009A60DA601A6100233B61384B1B6B374ACA
:100E300043F004031363354B1B6B03F004033B6166
:100E40003B690023FB60314B1B6B304A43F080034E
:100E500013632E4B1B6B03F08003FB60FB680023C6
:100E6000BB602A4B1B6B294A43F001031363274BDA
:100E70001B6B03F00103BB60BB6800237B60234B4B
:100E80001B6B224A43F002031363204B1B6B03F0DE
:100E900002037B607B68002220211D4801F0EEFCEC
:100EA0004FF400537B614FF40413BB610023FB61DB
:100EB00007F114031946174801F05CFB02237B611C
:100EC0004FF48813BB610023FB6107F1140319463B
:100ED000104801F04FFB20237B610123BB610023FD
:100EE000FB6100233B6207F114031946084801F037
:100EF00041FB00220021072000F003FF072000F043
:100F00001CFF00BF2837BD4680BD00BF003802402F
:100F1000000002400008024080B500AF124B134AA7
:100F20001A60114B124A5A600F4B00229A600E4B06
:100F30000022DA600C4B4FF480421A610A4B002207
:100F40005A61094B00229A61074B0022DA61064B75
:100F500000221A62044801F0CFFC0346002B01D0A6
:100F600000F0A6F900BF80BD8C00002000540040B6
:100F7000801A060080B58AB000AF786007F11403CC
:100F800000221A605A609A60DA601A617B681B68F6
:100F9000194A93422CD100233B61184B1B6B174A13
:100FA00043F002031363154B1B6B03F002033B6119
:100FB0003B694FF440737B611223BB610123FB61EA
:100FC00003233B6204237B6207F1140319460C4898
:100FD00001F0D0FA0023FB60084B1B6C074A43F476
:100FE00000131364054B1B6C03F40013FB60FB68D8
:100FF00000BF2837BD4680BD005400400038024085
:10100000000402402DE9B04F8EB00AAF04F0A0FDFD
:1010100000F0ACF8474B0022DA70464B00221A7001
:10102000444B00225A70434B08221A71414B012253
:101030009A70FFF7EDFEFFF7CBFE00F0B1FCFFF773
:101040006BFF00F037FC3B493B4800F036F900BF2E
:101050003A4B1B78DBB2002BFAD0384B00221A70C7
:10106000374A3449344800F00FFA364A3149324899
:1010700000F0A6FA324B1B68334A1360304B5B68B2
:10108000324A13602E4B9B68314A13602D4B1B680C
:10109000304A13602B4B5B682F4A1360294B9B68C7
:1010A0002E4A1360284B1B681846FFF7FDF9C7E965
:1010B0000201264B1B681846FFF7F6F904460D4659
:1010C000234B1B681846FFF7EFF980468946214BF2
:1010D0001B681846FFF7E8F982468B461E4B1B68D3
:1010E0001846FFF7E1F9C7E900011C4B1B681846D9
:1010F000FFF7DAF902460B46CDE9082397ED007BAE
:101100008DED067BCDE904ABCDE90289CDE9004543
:10111000D7E902231249134804F0E2FD1148FFF712
:10112000FFFD03469BB21A460E490F4803F0FEFC32
:101130008DE700BF5C0100208C000020E000002053
:10114000E4000020F0000020FC000020000100204E
:1011500004010020080100200C01002010010020E3
:10116000D465000814010020B001002080B594B0BF
:1011700000AF07F1200330220021184604F0A8FD3B
:1011800007F10C0300221A605A609A60DA601A6153
:101190000023BB60284B1B6C274A43F08053136429
:1011A000254B1B6C03F08053BB60BB6800237B6046
:1011B000224B1B68214A43F4404313601F4B1B68BA
:1011C00003F440437B607B6801233B624FF4A02320
:1011D0007B620223BB634FF48003FB6308233B6401
:1011E0004FF4C8737B640423BB640423FB6407F1DE
:1011F0002003184602F040FB0346002B01D000F00C
:1012000057F80F23FB6002233B6100237B614FF4FF
:101210008053BB610023FB6107F10C0303211846D7
:1012200002F0A2FD0346002B01D000F041F800BF00
:101230005037BD4680BD00BF0038024000700040FE
:1012400080B483B000AF78607B68064A934202D1D5
:10125000054B01221A7000BF0C37BD465DF8047BB8
:10126000704700BF68010020E000002080B582B018
:1012700000AF78607B680C4A934210D17B681B6892
:101280005B68732B03D1094803F060F807E07B68C3
:101290001B685B68652B02D1044803F0B9F800BFF6
:1012A0000837BD4680BD00BFB001002068010020A6
:1012B00080B400AF72B600BFFEE780B588B004AF5F
:1012C000786039600023FB734FF47A730293012333
:1012D000019307F10F03009301237522D021786851
:1012E00001F048FDFB7B682B62D14FF47A730293C7
:1012F000012301930023009301236B22D0217868FE
:1013000001F03EFC642004F095FC3B689B78002BC8
:101310000BD13B681B780833DBB25AB2FB7B5BB264
:1013200013435BB2DBB2FB7302E03B681B78FB73D9
:101330004FF47A7302930123019301230093012355
:101340006A22D021786801F01BFC3B685B78FB7354
:101350004FF47A7302930123019307F10F03009373
:1013600001231A22D021786801F00AFC3B68DB785F
:10137000FB734FF47A7302930123019307F10F0378
:10138000009301231C22D021786801F0F9FB3B680F
:101390001B79FB734FF47A7302930123019307F1D6
:1013A0000F03009301231B22D021786801F0E8FB92
:1013B00000BF1037BD4680BD80B588B004AF7860EF
:1013C00039604FF47A7302930623019307F10803FF
:1013D000009301234322D021786801F0CBFC3B7AB3
:1013E0001B021AB27B7A1BB213431AB23B681A80F3
:1013F000BB7A1B0219B2FB7A1AB23B6802330A436A
:1014000012B21A803B7B1B0219B27B7B1AB23B687B
:1014100004330A4312B21A8000BF1037BD4680BDA4
:1014200080B588B004AF786039604FF47A73029366
:101430000623019307F10803009301233B22D021E7
:10144000786801F097FC3B7A1B021AB27B7A1BB2D8
:1014500013431AB23B681A80BB7A1B0219B2FB7A9B
:101460001AB23B6802330A4312B21A803B7B1B025A
:1014700019B27B7B1AB23B6804330A4312B21A805A
:1014800000BF1037BD4680BD80B58AB000AFF860A0
:10149000B9607A6007F110031946F868FFF7C0FFDA
:1014A000BB68DB78002B1CD100237B6216E07B6AD3
:1014B0005B0028333B4433F9183C07EE903AB8EE12
:1014C000E77A7B6A9B007A681344DFED396AC7EEDE
:1014D000267AC3ED007A7B6A01337B627B6A022B3A
:1014E000E5DDBB68DB78082B1CD100233B6216E0EE
:1014F0003B6A5B0028333B4433F9183C07EE903AD3
:10150000B8EEE77A3B6A9B007A681344DFED296AFC
:10151000C7EE267AC3ED007A3B6A01333B623B6A31
:10152000022BE5DDBB68DB78102B1CD10023FB61AF
:1015300016E0FB695B0028333B4433F9183C07EEA7
:10154000903AB8EEE77AFB699B007A681344DFEDC6
:101550001A6AC7EE267AC3ED007AFB690133FB6194
:10156000FB69022BE5DDBB68DB78182B1CD100235F
:10157000BB6116E0BB695B0028333B4433F9183C80
:1015800007EE903AB8EEE77ABB699B007A6813449D
:10159000DFED0A6AC7EE267AC3ED007ABB69013334
:1015A000BB61BB69022BE5DD00BF2837BD4680BDAE
:1015B0000000804600000046000080450000004515
:1015C00090B58BB000AFF860B9607A6007F1100396
:1015D0001946F868FFF7F0FEBB681B79002B1FD196
:1015E00000237B6219E07B6A5B0028333B4433F9BC
:1015F000183C4F4A82FB03125211DB17D31A19B25F
:101600007B6A9B007A68134407EE901AF8EEE77A3B
:10161000C3ED007A7B6A01337B627B6A022BE2DDD9
:10162000BB681B79082B22D100233B621CE03B6A7C
:101630005B0028333B4433F9183C1846FEF722FF81
:1016400035A3D3E90023FFF7B1F802460B46104655
:1016500019463B6A9B007A68D418FFF78FF9034656
:1016600023603B6A01333B623B6A022BDFDDBB68D0
:101670001B79102B22D10023FB611CE0FB695B006E
:1016800028333B4433F9183C1846FEF7FBFE24A3ED
:10169000D3E90023FFF78AF802460B4610461946A5
:1016A000FB699B007A68D418FFF768F9034623604A
:1016B000FB690133FB61FB69022BDFDDBB681B7932
:1016C000182B22D10023BB611CE0BB695B002833CF
:1016D0003B4433F9183C1846FEF7D4FE12A3D3E975
:1016E0000023FFF763F802460B4610461946BB6914
:1016F0009B007A68D418FFF741F903462360BB6961
:101700000133BB61BB69022BDFDD00BF2C37BD4657
:1017100090BD00BFAFF300800000000000605040AB
:101720006666666666664040666666666666304001
:101730003DCB883E80B582B000AF00237B60104B6C
:101740005B6C0F4A43F4804353640D4B5B6C03F4B2
:1017500080437B607B6800233B60094B1B6C084A1D
:1017600043F080531364064B1B6C03F080533B60C3
:101770003B68072000F0BAFA00BF0837BD4680BDBD
:101780000038024080B400AFFEE780B400AFFEE74F
:1017900080B400AFFEE780B400AFFEE780B400AFD6
:1017A000FEE780B400AF00BFBD465DF8047B704724
:1017B00080B400AF00BFBD465DF8047B704780B4C5
:1017C00000AF00BFBD465DF8047B704780B500AF39
:1017D00004F010FA00BF80BD80B500AF022001F018
:1017E00067F800BF80BD000080B500AF024800F080
:1017F00057FC00BF80BD00BFF401002080B500AFE2
:10180000024802F034FE00BF80BD00BF6801002026
:1018100080B500AF024803F007FA00BF80BD00BFEB
:10182000B001002080B586B000AF7860144A154B37
:10183000D31A7B617B693B61134B1B68002B02D180
:10184000114B124A1A60104B1A687B6813443A69AC
:101850009A4207D204F012FA03460C221A604FF0A3
:10186000FF3309E0084B1B68FB60074B1A687B6875
:101870001344054A1360FB6818461837BD4680BDFF
:101880000000022000040000640100206802002023
:1018900080B400AF064BD3F88830054A43F4700398
:1018A000C2F8883000BFBD465DF8047B704700BFBA
:1018B00000ED00E080B586B000AF07F1080300221C
:1018C0001A605A609A60DA603B4600221A605A60D9
:1018D0001D4B1E4A1A601C4B42F20F725A601A4B83
:1018E00000229A60184B3122DA60174B00221A61ED
:1018F000154B80229A61144802F0D8FC0346002B55
:1019000001D0FFF7D5FC4FF48053BB6007F108030B
:1019100019460D4802F0B3FE0346002B01D0FFF735
:10192000C7FC00233B6000237B603B46194606480A
:1019300002F03AFC0346002B01D0FFF7B9FC00BFD0
:101940001837BD4680BD00BF68010020000400407C
:1019500080B584B000AF78607B681B680E4A934204
:1019600015D10023FB600D4B1B6C0C4A43F00203A6
:1019700013640A4B1B6C03F00203FB60FB6800223C
:1019800000211D2000F0BDF91D2000F0D6F900BF98
:101990001037BD4680BD00BF000400400038024043
:1019A00080B500AF114B124A1A60104B4FF4E13270
:1019B0005A600E4B00229A600C4B0022DA600B4BEF
:1019C00000221A61094B0C225A61084B00229A61CD
:1019D000064B0022DA61054803F05AF80346002B53
:1019E00001D0FFF765FC00BF80BD00BFB001002043
:1019F0000044004080B58AB000AF786007F114035E
:101A000000221A605A609A60DA601A617B681B686B
:101A1000344A934261D100233B61334B1B6C324A01
:101A200043F400331364304B1B6C03F400333B610D
:101A30003B690023FB602C4B1B6B2B4A43F00103DB
:101A40001363294B1B6B03F00103FB60FB680C2342
:101A50007B610223BB610023FB6103233B620723FD
:101A60007B6207F114031946204800F083FD204BE8
:101A7000204A1A601E4B4FF000625A601C4B4022F5
:101A80009A601B4B0022DA60194B4FF480621A6196
:101A9000174B00225A61164B00229A61144B002208
:101AA000DA61134B00221A62114B00225A6210486D
:101AB00000F05EF90346002B01D0FFF7F9FB7B68CD
:101AC0000B4A5A630A4A7B6893630022002126204E
:101AD00000F017F9262000F030F900BF2837BD4686
:101AE00080BD00BF004400400038024000000240BA
:101AF000F4010020A0600240DFF834D00D480E4908
:101B00000E4A002302E0D458C4500433C4188C4257
:101B1000F9D30B4A0B4C002301E013600432A242BC
:101B2000FBD3FFF7B5FE04F0AFF8FFF76BFA704791
:101B30000000022000000020700000206066000805
:101B40007000002068020020FEE7000080B485B02D
:101B500000AF78607B6803F00703FB600C4BDB6829
:101B6000BB60BA684FF6FF031340BB60FB681A0204
:101B7000BB68134343F0BF6343F40033BB60044AC4
:101B8000BB68D36000BF1437BD465DF8047B704767
:101B900000ED00E080B400AF044BDB681B0A03F0EB
:101BA00007031846BD465DF8047B704700ED00E072
:101BB00080B483B000AF0346FB7197F90730002B68
:101BC0000BDBFB7903F01F02074997F907305B092C
:101BD000012000FA02F241F8232000BF0C37BD4675
:101BE0005DF8047B704700BF00E100E080B483B083
:101BF00000AF03463960FB7197F90730002B0ADB11
:101C00003B68DAB20C4997F907301201D2B20B44A3
:101C100083F800230AE03B68DAB20849FB7903F055
:101C20000F03043B1201D2B20B441A7600BF0C37EB
:101C3000BD465DF8047B704700E100E000ED00E088
:101C400080B489B000AFF860B9607A60FB6803F0D7
:101C50000703FB61FB69C3F10703042B28BF0423BF
:101C6000BB61FB690433062B02D9FB69033B00E02F
:101C700000237B614FF0FF32BB6902FA03F3DA43C2
:101C8000BB681A407B699A404FF0FF317B6901FACB
:101C900003F3D9437B680B40134318462437BD46F2
:101CA0005DF8047B7047000080B582B000AF7860BB
:101CB0007B68013BB3F1807F01D301230FE00A4A27
:101CC0007B68013B53600F214FF0FF30FFF78EFF21
:101CD000054B00229A60044B07221A600023184625
:101CE0000837BD4680BD00BF10E000E080B582B07F
:101CF00000AF78607868FFF729FF00BF0837BD465E
:101D000080BD80B586B000AF0346B9607A60FB73D2
:101D100000237B61FFF73EFF78617A68B9687869D4
:101D2000FFF78EFF024697F90F3011461846FFF76E
:101D30005DFF00BF1837BD4680BD80B582B000AFE3
:101D40000346FB7197F907301846FFF731FF00BFD4
:101D50000837BD4680BD80B582B000AF7860786836
:101D6000FFF7A2FF034618460837BD4680BD0000B6
:101D700080B586B000AF786000237B6103F04EFF32
:101D800038617B68002B01D1012399E07B68022236
:101D900083F835207B68002283F834207B681B6839
:101DA0001A687B681B6822F001021A600FE003F0DA
:101DB00035FF02463B69D31A052B08D97B682022E0
:101DC0005A657B68032283F83520032378E07B681B
:101DD0001B681B6803F00103002BE8D17B681B68BC
:101DE0001B687B617A69384B13407B617B685A685A
:101DF0007B689B681A437B68DB681A437B681B69B6
:101E00001A437B685B691A437B689B691A437B684A
:101E1000DB691A437B681B6A13437A6913437B614E
:101E20007B685B6A042B07D17B68DA6A7B681B6B73
:101E300013437A6913437B617B681B687A691A6074
:101E40007B681B685B697B617B6923F007037B61AF
:101E50007B685B6A7A6913437B617B685B6A042BEE
:101E600017D17B689B6A7A6913437B617B68DB6A65
:101E7000002B0ED0786800F001FB0346002B08D041
:101E80007B6840225A657B68012283F83520012354
:101E900016E07B681B687A695A61786800F0B8FAC6
:101EA0000346FB607B68DB6D3F229A40FB689A60CB
:101EB0007B6800225A657B68012283F83520002365
:101EC00018461837BD4680BD3F8010F080B586B0FB
:101ED00000AFF860B9607A603B600023FB75FB6877
:101EE0009B6D3B61FB6893F83430012B01D10223D9
:101EF00040E0FB68012283F83420FB6893F835301A
:101F0000DBB2012B2FD1FB68022283F83520FB685E
:101F100000225A653B687A68B968F86800F04AFAA6
:101F2000FB68DB6D3F229A403B699A60FB681B6847
:101F30001A68FB681B6842F016021A60FB681B6C8B
:101F4000002B07D0FB681B681A68FB681B6842F00F
:101F500008021A60FB681B681A68FB681B6842F07D
:101F600001021A6005E0FB68002283F83420022396
:101F7000FB75FB7D18461837BD4680BD80B584B023
:101F800000AF78607B689B6DFB6003F047FEB86034
:101F90007B6893F83530DBB2022B08D07B68802257
:101FA0005A657B68002283F83420012352E07B6865
:101FB0001B681A687B681B6822F016021A607B682F
:101FC0001B685A697B681B6822F080025A617B6833
:101FD0001B6C002B03D17B689B6C002B07D07B68AC
:101FE0001B681A687B681B6822F008021A607B680D
:101FF0001B681A687B681B6822F001021A6013E0F4
:1020000003F00CFE0246BB68D31A052B0CD97B6883
:1020100020225A657B68032283F835207B680022E2
:1020200083F83420032315E07B681B681B6803F0EA
:102030000103002BE4D17B68DB6D3F229A40FB68F3
:102040009A607B68012283F835207B68002283F840
:102050003420002318461037BD4680BD80B483B0BD
:1020600000AF78607B6893F83530DBB2022B04D088
:102070007B6880225A6501230CE07B68052283F887
:1020800035207B681B681A687B681B6822F0010298
:102090001A60002318460C37BD465DF8047B704774
:1020A00080B586B000AF78600023BB608E4B1B68A4
:1020B0008E4AA2FB03239B0A7B617B689B6D3B617D
:1020C0003B691B68FB607B68DB6D08229A40FB68FC
:1020D0001340002B1AD07B681B681B6803F00403B5
:1020E000002B13D07B681B681A687B681B6822F082
:1020F00004021A607B68DB6D08229A403B699A6093
:102100007B685B6D43F001027B685A657B68DB6D21
:1021100001229A40FB681340002B12D07B681B6899
:102120005B6903F08003002B0BD07B68DB6D012221
:102130009A403B699A607B685B6D43F002027B6862
:102140005A657B68DB6D04229A40FB681340002BC4
:1021500012D07B681B681B6803F00203002B0BD0B6
:102160007B68DB6D04229A403B699A607B685B6DFB
:1021700043F004027B685A657B68DB6D10229A404D
:10218000FB681340002B43D07B681B681B6803F07F
:102190000803002B3CD07B68DB6D10229A403B6922
:1021A0009A607B681B681B6803F48023002B18D09F
:1021B0007B681B681B6803F40023002B08D17B6835
:1021C0001B6C002B24D07B681B6C786898471FE041
:1021D0007B689B6C002B1BD07B689B6C7868984756
:1021E00016E07B681B681B6803F48073002B07D123
:1021F0007B681B681A687B681B6822F008021A60FB
:102200007B681B6C002B03D07B681B6C786898473D
:102210007B68DB6D20229A40FB681340002B00F0A6
:102220008F807B681B681B6803F01003002B00F095
:1022300087807B68DB6D20229A403B699A607B68CF
:1022400093F83530DBB2052B36D17B681B681A68F2
:102250007B681B6822F016021A607B681B685A694B
:102260007B681B6822F080025A617B681B6C002B24
:1022700003D17B689B6C002B07D07B681B681A68B6
:102280007B681B6822F008021A607B68DB6D3F22C6
:102290009A403B699A607B68012283F835207B680D
:1022A000002283F834207B681B6D002B7ED07B6876
:1022B0001B6D7868984779E07B681B681B6803F49E
:1022C0008023002B1DD07B681B681B6803F4002350
:1022D000002B0DD17B685B6C002B31D07B685B6C75
:1022E000786898472CE000BF00000020B5814E1BA5
:1022F0007B68DB6B002B23D07B68DB6B78689847AF
:102300001EE07B681B681B6803F48073002B0FD1F1
:102310007B681B681A687B681B6822F010021A60D1
:102320007B68012283F835207B68002283F8342003
:102330007B68DB6B002B03D07B68DB6B786898478E
:102340007B685B6D002B32D07B685B6D03F0010313
:10235000002B22D07B68052283F835207B681B6820
:102360001A687B681B6822F001021A60BB6801339F
:10237000BB607A699A4207D37B681B681B6803F0CD
:102380000103002BF2D100E000BF7B68012283F83B
:1023900035207B68002283F834207B68DB6C002BBF
:1023A00005D07B68DB6C7868984700E000BF183781
:1023B000BD4680BD80B485B000AFF860B9607A607A
:1023C0003B60FB681B681A68FB681B6822F480226C
:1023D0001A60FB681B683A685A60FB689B68402B70
:1023E00008D1FB681B687A689A60FB681B68BA684A
:1023F000DA6007E0FB681B68BA689A60FB681B68D4
:102400007A68DA6000BF1437BD465DF8047B704718
:1024100080B485B000AF78607B681B68DBB2103B8E
:10242000144AA2FB03231B09FB60134AFB681344F5
:102430001B781A467B68DA65FB68032B09D97B6831
:102440001B6823F47F7323F003031A1D7B689A65CE
:1024500007E07B681B6823F47F7323F003037A682B
:1024600093657B689B6D18461437BD465DF8047B09
:10247000704700BFABAAAAAA1466000880B485B052
:1024800000AF78600023FB737B689B6ABB607B684E
:102490009B69002B1FD1BB68032B56D801A252F8B1
:1024A00023F000BFB5240008C7240008B5240008A5
:1024B0004B2500087B68DB6A03F08073002B46D055
:1024C0000123FB7343E07B68DB6AB3F1C07F40D13B
:1024D0000123FB733DE07B689B69B3F5005F21D16D
:1024E000BB68032B37D801A252F823F0FD24000863
:1024F00003250008FD240008152500080123FB73AF
:1025000030E07B68DB6A03F08073002B25D0012369
:10251000FB7322E07B68DB6AB3F1C07F1FD101232C
:10252000FB731CE0BB68022B03D9BB68032B03D0F1
:1025300018E00123FB7315E07B68DB6A03F080730E
:10254000002B0ED00123FB730BE000BF0AE000BF9D
:1025500008E000BF06E000BF04E000BF02E000BFEB
:1025600000E000BFFB7B18461437BD465DF8047BD6
:10257000704700BF80B489B000AF78603960002335
:102580007B6100233B610023BB610023FB6159E1B8
:102590000122FB6902FA03F37B613B681B687A69DD
:1025A00013403B613A697B699A4240F048813B683D
:1025B0005B6803F00303012B05D03B685B6803F005
:1025C0000303022B30D17B689B68BB61FB695B0016
:1025D000032202FA03F3DB43BA691340BB613B6891
:1025E000DA68FB695B0002FA03F3BA691343BB6163
:1025F0007B68BA699A607B685B68BB610122FB6992
:1026000002FA03F3DB43BA691340BB613B685B68C2
:102610001B0903F00102FB6902FA03F3BA691343D1
:10262000BB617B68BA695A603B685B6803F003036F
:10263000032B17D07B68DB68BB61FB695B0003225F
:1026400002FA03F3DB43BA691340BB613B689A6843
:10265000FB695B0002FA03F3BA691343BB617B6851
:10266000BA69DA603B685B6803F00303022B23D18D
:10267000FB69DA087B68083253F82230BB61FB69DA
:1026800003F007039B000F2202FA03F3DB43BA694E
:102690001340BB613B681A69FB6903F007039B00A9
:1026A00002FA03F3BA691343BB61FB69DA087B687A
:1026B0000832B96943F822107B681B68BB61FB696B
:1026C0005B00032202FA03F3DB43BA691340BB61E8
:1026D0003B685B6803F00302FB695B0002FA03F3EB
:1026E000BA691343BB617B68BA691A603B685B686F
:1026F00003F44033002B00F0A2800023FB60574B13
:102700005B6C564A43F480435364544B5B6C03F454
:102710008043FB60FB68524AFB699B08023352F816
:102720002330BB61FB6903F003039B000F2202FA15
:1027300003F3DB43BA691340BB617B68494A9342A8
:1027400019D07B68484A934213D07B68474A93422A
:102750000DD07B68464A934207D07B68454A934236
:1027600001D1042308E0072306E0032304E0022349
:1027700002E0012300E00023FA6902F00302920064
:102780009340BA691343BB613549FB699B08023327
:10279000BA6941F82320384B9B68BB613B69DB4336
:1027A000BA691340BB613B685B6803F48013002B7C
:1027B00003D0BA693B691343BB612F4ABB6993607D
:1027C0002D4BDB68BB613B69DB43BA691340BB61DE
:1027D0003B685B6803F40013002B03D0BA693B69C4
:1027E0001343BB61244ABB69D360234B5B68BB6165
:1027F0003B69DB43BA691340BB613B685B6803F428
:102800000033002B03D0BA693B691343BB611A4AFA
:10281000BB695360184B1B68BB613B69DB43BA69FA
:102820001340BB613B685B6803F48033002B03D02B
:10283000BA693B691343BB610F4ABB691360FB690B
:102840000133FB61FB690F2B7FF6A2AE00BF00BF17
:102850002437BD465DF8047B704700BF0038024056
:10286000003801400000024000040240000802401D
:10287000000C024000100240003C014080B483B0D4
:1028800000AF78600B467B8013467B707B78002B13
:1028900003D07A887B689A6103E07B881A047B689E
:1028A0009A6100BF0C37BD465DF8047B704700009D
:1028B00080B582B000AF0346FB80084B5A69FB88A5
:1028C0001340002B06D0054AFB885361FB8818464D
:1028D00000F006F800BF0837BD4680BD003C01404F
:1028E00080B483B000AF0346FB8000BF0C37BD4609
:1028F0005DF8047B7047000080B584B000AF78605D
:102900007B68002B01D101232BE17B6893F83D30DC
:10291000DBB2002B06D17B68002283F83C2078686C
:10292000FEF728FB7B68242283F83D207B681B6828
:102930001A687B681B6822F001021A607B681B68BA
:102940001A687B681B6842F400421A607B681B6847
:102950001A687B681B6822F400421A6001F0FCFBD5
:10296000F8607B685B68814A934207D8FB68804ABD
:10297000934294BF01230023DBB206E0FB687D4A4B
:10298000934294BF01230023DBB2002B01D001232B
:10299000E7E0FB68784AA2FB03239B0CBB607B68E3
:1029A0001B685B6823F03F017B681B68BA680A43B9
:1029B0005A607B681B681B6A23F03F017B685B6879
:1029C0006A4A934202D8BB68013309E0BB684FF4FE
:1029D000967202FB03F3694AA2FB03239B090133AE
:1029E0007A6812680B4313627B681B68DB6923F407
:1029F0004F4222F0FF027B685B685C498B4219D82A
:102A0000FB68591E7B685B685B00B1FBF3F3591CE4
:102A100040F6FC730B40002B0AD0FB68591E7B6804
:102A20005B685B00B1FBF3F30133C3F30B0351E0CD
:102A300004234FE07B689B68002B11D1FB68581E74
:102A40007B6859680B465B000B44B0FBF3F3013322
:102A5000C3F30B03002B0CBF01230023DBB212E0F6
:102A6000FB68581E7B6859680B469B000B44990015
:102A70000B44B0FBF3F30133C3F30B03002B0CBF88
:102A800001230023DBB2002B01D0012322E07B686D
:102A90009B68002B0ED1FB68581E7B6859680B465B
:102AA0005B000B44B0FBF3F30133C3F30B0343F4BC
:102AB00000430FE0FB68581E7B6859680B469B007B
:102AC0000B4499000B44B0FBF3F30133C3F30B0346
:102AD00043F44043796809681343CB617B681B6802
:102AE0001B6823F0C0017B68DA697B681B6A1A43A4
:102AF0007B681B680A431A607B681B689B6823F429
:102B0000034323F0FF037A6811697A68D26811439E
:102B10007A6812680B4393607B681B68DB6823F05C
:102B2000FF017B685A697B689B691A437B681B6855
:102B30000A43DA607B681B681A687B681B6842F08E
:102B400001021A607B6800221A647B68202283F8E5
:102B50003D207B6800221A637B68002283F83E20B8
:102B6000002318461037BD4680BD00BFA086010077
:102B70007F841E00FF083D0083DE1B43D34D62109F
:102B800080B588B002AFF860084611461A46034681
:102B90007B810B463B811346FB8003F03FF8786155
:102BA000FB6893F83D30DBB2202B40F0D9807B6985
:102BB0000093192301226D49F86800F07FFC034659
:102BC000002B01D00223CCE0FB6893F83C30012BB2
:102BD00001D10223C5E0FB68012283F83C20FB6899
:102BE0001B681B6803F00103012B07D0FB681B68FF
:102BF0001A68FB681B6842F001021A60FB681B68D8
:102C00001A68FB681B6822F400621A60FB682122C4
:102C100083F83D20FB68402283F83E20FB680022B9
:102C20001A64FB683A6A5A62FB68BA8C5A85FB6878
:102C30005B8D9AB2FB681A85FB684D4ADA62F888A8
:102C40003A8979897B690193BB6A00930346F868E6
:102C500000F0B6FA0346002B52D0012381E07A69D6
:102C6000B96AF86800F000FD0346002B0DD0FB6840
:102C70001B6C042B07D1FB681B681A68FB681B6878
:102C800042F400721A6001236BE0FB685B6A1A78F9
:102C9000FB681B681A61FB685B6A5A1CFB685A6216
:102CA000FB681B8D013B9AB2FB681A85FB685B8D44
:102CB0009BB2013B9AB2FB685A85FB681B685B6953
:102CC00003F00403042B1BD1FB681B8D002B17D0D2
:102CD000FB685B6A1A78FB681B681A61FB685B6AB1
:102CE0005A1CFB685A62FB681B8D013B9AB2FB6859
:102CF0001A85FB685B8D9BB2013B9AB2FB685A85D3
:102D0000FB681B8D002BAAD17A69B96AF86800F0BC
:102D1000ECFC0346002B0DD0FB681B6C042B07D189
:102D2000FB681B681A68FB681B6842F400721A6033
:102D3000012316E0FB681B681A68FB681B6842F4F5
:102D400000721A60FB68202283F83D20FB68002295
:102D500083F83E20FB68002283F83C20002300E03B
:102D6000022318461837BD4680BD00BF0200100080
:102D70000000FFFF80B58CB002AFF8600846114636
:102D80001A4603467B810B463B811346FB8002F0CB
:102D900045FF7862FB6893F83D30DBB2202B40F0B2
:102DA00008827B6A0093192301227B49F86800F0AE
:102DB00085FB0346002B01D00223FBE1FB6893F85F
:102DC0003C30012B01D10223F4E1FB68012283F89E
:102DD0003C20FB681B681B6803F00103012B07D034
:102DE000FB681B681A68FB681B6842F001021A60E6
:102DF000FB681B681A68FB681B6822F400621A6093
:102E0000FB68222283F83D20FB68402283F83E20A5
:102E1000FB6800221A64FB683A6B5A62FB68BA8E40
:102E20005A85FB685B8D9AB2FB681A85FB685B4A22
:102E3000DA62F8883A8979897B6A0193BB6B0093DF
:102E40000346F86800F052FA0346002B01D0012334
:102E5000B0E1FB681B8D002B13D100233B62FB68A4
:102E60001B685B693B62FB681B689B693B623B6A52
:102E7000FB681B681A68FB681B6842F400721A60E2
:102E800084E1FB681B8D012B1BD1FB681B681A6852
:102E9000FB681B6822F480621A600023FB61FB68F8
:102EA0001B685B69FB61FB681B689B69FB61FB69D5
:102EB000FB681B681A68FB681B6842F400721A60A2
:102EC00064E1FB681B8D022B1BD1FB681B681A6831
:102ED000FB681B6822F480621A60FB681B681A6832
:102EE000FB681B6842F400621A600023BB61FB6848
:102EF0001B685B69BB61FB681B689B69BB61BB6945
:102F000044E100237B61FB681B685B697B61FB68B4
:102F10001B689B697B617B6938E1FB681B8D032B18
:102F200000F2F180FB681B8D012B23D17A6AB96B0B
:102F3000F86800F01BFC0346002B01D0012339E1A7
:102F4000FB681B681A69FB685B6AD2B21A70FB687F
:102F50005B6A5A1CFB685A62FB681B8D013B9AB284
:102F6000FB681A85FB685B8D9BB2013B9AB2FB68DC
:102F70005A850BE1FB681B8D022B4ED17B6A0093B7
:102F8000BB6B00220649F86800F098FA0346002B54
:102F900008D001230EE100BF020010000000FFFF77
:102FA00004000100FB681B681A68FB681B6842F498
:102FB00000721A60FB681B681A69FB685B6AD2B210
:102FC0001A70FB685B6A5A1CFB685A62FB681B8DAF
:102FD000013B9AB2FB681A85FB685B8D9BB2013B93
:102FE0009AB2FB685A85FB681B681A69FB685B6AC2
:102FF000D2B21A70FB685B6A5A1CFB685A62FB68A3
:103000001B8D013B9AB2FB681A85FB685B8D9BB2F6
:10301000013B9AB2FB685A85B8E07B6A0093BB6BB0
:1030200000226649F86800F049FA0346002B01D0F7
:103030000123BFE0FB681B681A68FB681B6822F469
:1030400080621A60FB681B681A69FB685B6AD2B20F
:103050001A70FB685B6A5A1CFB685A62FB681B8D1E
:10306000013B9AB2FB681A85FB685B8D9BB2013B02
:103070009AB2FB685A857B6A0093BB6B00224F496A
:10308000F86800F01BFA0346002B01D0012391E001
:10309000FB681B681A68FB681B6842F400721A60C0
:1030A000FB681B681A69FB685B6AD2B21A70FB681E
:1030B0005B6A5A1CFB685A62FB681B8D013B9AB223
:1030C000FB681A85FB685B8D9BB2013B9AB2FB687B
:1030D0005A85FB681B681A69FB685B6AD2B21A7072
:1030E000FB685B6A5A1CFB685A62FB681B8D013BDC
:1030F0009AB2FB681A85FB685B8D9BB2013B9AB262
:10310000FB685A8542E07A6AB96BF86800F02EFBDA
:103110000346002B01D001234CE0FB681B681A69B1
:10312000FB685B6AD2B21A70FB685B6A5A1CFB6868
:103130005A62FB681B8D013B9AB2FB681A85FB68DB
:103140005B8D9BB2013B9AB2FB685A85FB681B689A
:103150005B6903F00403042B18D1FB681B681A6930
:10316000FB685B6AD2B21A70FB685B6A5A1CFB6828
:103170005A62FB681B8D013B9AB2FB681A85FB689B
:103180005B8D9BB2013B9AB2FB685A85FB681B8D35
:10319000002B7FF4C2AEFB68202283F83D20FB6841
:1031A000002283F83E20FB68002283F83C200023A5
:1031B00000E0022318462837BD4680BD0400010008
:1031C00080B588B002AFF860084611461A4603463B
:1031D0007B810B463B811346FB80FB681B681A68AA
:1031E000FB681B6842F480721A607B6A00933B6A3A
:1031F00000224FF00111F86800F060F90346002B3F
:103200000DD0FB681B681B6803F48073B3F5807FE7
:1032100003D1FB684FF400721A6403235FE07B89DB
:10322000DBB21A46FB681B6802F0FE021A617B6A79
:103230003A6A2D49F86800F098F90346002B01D04E
:1032400001234CE000237B61FB681B685B697B61A9
:10325000FB681B689B697B617B697A6A396AF868DD
:1032600000F002FA0346002B0DD0FB681B6C042B08
:1032700007D1FB681B681A68FB681B6842F4007280
:103280001A6001232BE0FB88012B05D13B89DAB2C0
:10329000FB681B681A6121E03B891B0A9BB2DAB20A
:1032A000FB681B681A617A6A396AF86800F0DCF911
:1032B0000346002B0DD0FB681B6C042B07D1FB6869
:1032C0001B681A68FB681B6842F400721A600123CD
:1032D00005E03B89DAB2FB681B681A6100231846D7
:1032E0001837BD4680BD00BF0200010080B588B020
:1032F00002AFF860084611461A4603467B810B462A
:103300003B811346FB80FB681B681A68FB681B68DF
:1033100042F480621A60FB681B681A68FB681B68CD
:1033200042F480721A607B6A00933B6A00224FF07D
:103330000111F86800F0C2F80346002B0DD0FB68BD
:103340001B681B6803F48073B3F5807F03D1FB68AF
:103350004FF400721A640323AAE07B89DBB21A4699
:10336000FB681B6802F0FE021A617B6A3A6A5249E6
:10337000F86800F0FAF80346002B01D0012397E02B
:1033800000237B61FB681B685B697B61FB681B68D2
:103390009B697B617B697A6A396AF86800F064F935
:1033A0000346002B0DD0FB681B6C042B07D1FB6878
:1033B0001B681A68FB681B6842F400721A600123DC
:1033C00076E0FB88012B05D13B89DAB2FB681B68EC
:1033D0001A6121E03B891B0A9BB2DAB2FB681B68C9
:1033E0001A617A6A396AF86800F03EF90346002BE0
:1033F0000DD0FB681B6C042B07D1FB681B681A6897
:10340000FB681B6842F400721A60012350E03B899C
:10341000DAB2FB681B681A617A6A396AF86800F0E8
:1034200023F90346002B0DD0FB681B6C042B07D13E
:10343000FB681B681A68FB681B6842F400721A601C
:10344000012335E0FB681B681A68FB681B6842F4BF
:1034500080721A607B6A00933B6A00224FF0011170
:10346000F86800F02BF80346002B0DD0FB681B68B2
:103470001B6803F48073B3F5807F03D1FB684FF4BE
:1034800000721A64032313E07B89DBB243F001036B
:10349000DAB2FB681B681A617B6A3A6A0649F86807
:1034A00000F063F80346002B01D0012300E0002365
:1034B00018461837BD4680BD0200010080B584B0B3
:1034C00000AFF860B9603B601346FB7125E03B68D4
:1034D000B3F1FF3F21D002F0A1FB0246BB69D31A32
:1034E0003A689A4202D33B68002B16D1FB6800224F
:1034F0001A63FB68202283F83D20FB68002283F8D2
:103500003E20FB681B6C43F02002FB681A64FB68DA
:10351000002283F83C20012323E0BB681B0CDBB2B4
:10352000012B0DD1FB681B685B69DA43BB68134054
:103530009BB2002B0CBF01230023DBB21A460CE028
:10354000FB681B689B69DA43BB6813409BB2002B86
:103550000CBF01230023DBB21A46FB799A42B6D096
:10356000002318461037BD4680BD80B584B000AF3B
:10357000F860B9607A603B6051E0FB681B685B698A
:1035800003F48063B3F5806F23D1FB681B681A686E
:10359000FB681B6842F400721A60FB681B686FF4DA
:1035A00080625A61FB6800221A63FB68202283F85C
:1035B0003D20FB68002283F83E20FB681B6C43F033
:1035C0000402FB681A64FB68002283F83C20012394
:1035D00046E07B68B3F1FF3F21D002F01FFB0246BB
:1035E0003B68D31A7A689A4202D37B68002B16D1C3
:1035F000FB6800221A63FB68202283F83D20FB68E9
:10360000002283F83E20FB681B6C43F02002FB681D
:103610001A64FB68002283F83C20012320E0BB6889
:103620001B0CDBB2012B0CD1FB681B685B69DA4316
:10363000BB6813409BB2002B14BF01230023DBB2F5
:103640000BE0FB681B689B69DA43BB6813409BB2C5
:10365000002B14BF01230023DBB2002B8DD10023EC
:1036600018461037BD4680BD80B584B000AFF86005
:10367000B9607A602DE0F86800F0CEF80346002BC0
:1036800001D001232DE0BB68B3F1FF3F21D002F050
:10369000C5FA02467B68D31ABA689A4202D3BB685D
:1036A000002B16D1FB6800221A63FB68202283F8E6
:1036B0003D20FB68002283F83E20FB681B6C43F032
:1036C0002002FB681A64FB68002283F83C20012377
:1036D00007E0FB681B685B6903F08003802BCAD19D
:1036E000002318461037BD4680BD80B584B000AFBA
:1036F000F860B9607A602DE0F86800F08DF8034654
:10370000002B01D001232DE0BB68B3F1FF3F21D096
:1037100002F084FA02467B68D31ABA689A4202D34E
:10372000BB68002B16D1FB6800221A63FB682022BD
:1037300083F83D20FB68002283F83E20FB681B6C69
:1037400043F02002FB681A64FB68002283F83C20E7
:10375000012307E0FB681B685B6903F00403042B8B
:10376000CAD1002318461037BD4680BD80B584B04D
:1037700000AFF860B9607A6042E0FB681B685B6983
:1037800003F01003102B19D1FB681B686FF01002B7
:103790005A61FB6800221A63FB68202283F83D20EF
:1037A000FB68002283F83E20FB681A6CFB681A64F1
:1037B000FB68002283F83C20012329E002F02EFA66
:1037C00002467B68D31ABA689A4202D3BB68002BC0
:1037D00016D1FB6800221A63FB68202283F83D2083
:1037E000FB68002283F83E20FB681B6C43F020023C
:1037F000FB681A64FB68002283F83C20012307E081
:10380000FB681B685B6903F04003402BB5D10023C4
:1038100018461037BD4680BD80B483B000AF7860D5
:103820007B681B685B6903F48063B3F5806F1BD111
:103830007B681B686FF480625A617B6800221A63A0
:103840007B68202283F83D207B68002283F83E209D
:103850007B681B6C43F004027B681A647B6800225F
:1038600083F83C20012300E0002318460C37BD46B6
:103870005DF8047B7047000080B586B000AF7860CB
:103880007B68002B01D1012367E27B681B6803F092
:103890000103002B75D0884B9B6803F00C03042BAD
:1038A0000CD0854B9B6803F00C03082B12D1824B84
:1038B0005B6803F48003B3F5800F0BD17E4B1B686C
:1038C00003F40033002B5BD07B685B68002B57D17F
:1038D000012342E27B685B68B3F5803F06D1764BFB
:1038E0001B68754A43F4803313601DE07B685B6896
:1038F000B3F5A02F0CD1704B1B686F4A43F48023A3
:1039000013606D4B1B686C4A43F4803313600BE00B
:10391000694B1B68684A23F480331360664B1B684D
:10392000654A23F4802313607B685B68002B13D007
:1039300002F074F9386108E002F070F902463B6960
:10394000D31A642B01D9032307E25B4B1B6803F4F2
:103950000033002BF0D014E002F060F9386108E089
:1039600002F05CF902463B69D31A642B01D90323A8
:10397000F3E1514B1B6803F40033002BF0D100E05E
:1039800000BF7B681B6803F00203002B63D04A4B27
:103990009B6803F00C03002B0BD0474B9B6803F094
:1039A0000C03082B1CD1444B5B6803F48003002BF1
:1039B00016D1414B1B6803F00203002B05D07B6836
:1039C000DB68012B01D00123C7E13B4B1B6823F0CF
:1039D000F8027B681B69DB00374913430B603AE050
:1039E0007B68DB68002B20D0344B01221A6002F088
:1039F00015F9386108E002F011F902463B69D31A63
:103A0000022B01D90323A8E12B4B1B6803F002030F
:103A1000002BF0D0284B1B6823F0F8027B681B6951
:103A2000DB00254913430B6015E0244B00221A608C
:103A300002F0F4F8386108E002F0F0F802463B6961
:103A4000D31A022B01D9032387E11B4B1B6803F018
:103A50000203002BF0D17B681B6803F00803002BE6
:103A600036D07B685B69002B16D0154B01221A609B
:103A700002F0D4F8386108E002F0D0F802463B6961
:103A8000D31A022B01D9032367E10B4B5B6F03F0C1
:103A90000203002BF0D01BE0094B00221A6002F059
:103AA000BDF838610EE002F0B9F802463B69D31A5E
:103AB000022B07D9032350E100380240000047429F
:103AC000800E4742884B5B6F03F00203002BEAD164
:103AD0007B681B6803F00403002B00F09780002331
:103AE000FB75814B1B6C03F08053002B0FD100231F
:103AF000BB607D4B1B6C7C4A43F0805313647A4B54
:103B00001B6C03F08053BB60BB680123FB75774BD4
:103B10001B6803F48073002B18D1744B1B68734A25
:103B200043F48073136002F079F8386108E002F022
:103B300075F802463B69D31A022B01D903230CE125
:103B40006A4B1B6803F48073002BF0D07B689B6882
:103B5000012B06D1644B1B6F634A43F001031367CB
:103B60001CE07B689B68052B0CD15F4B1B6F5E4A8A
:103B700043F0040313675C4B1B6F5B4A43F0010384
:103B800013670BE0584B1B6F574A23F00103136771
:103B9000554B1B6F544A23F0040313677B689B68E3
:103BA000002B15D002F03AF838610AE002F036F83E
:103BB00002463B69D31A41F28832934201D903236A
:103BC000CBE0494B1B6F03F00203002BEED014E057
:103BD00002F024F838610AE002F020F802463B695E
:103BE000D31A41F28832934201D90323B5E03E4B08
:103BF0001B6F03F00203002BEED1FB7D012B05D1DF
:103C0000394B1B6C384A23F0805313647B689B69E3
:103C1000002B00F0A180344B9B6803F00C03082BB1
:103C20005CD07B689B69022B41D1314B00221A602A
:103C300001F0F4FF386108E001F0F0FF02463B6953
:103C4000D31A022B01D9032387E0274B1B6803F00B
:103C50000073002BF0D17B68DA697B681B6A1A431A
:103C60007B685B6A9B011A437B689B6A5B08013B2C
:103C70001B041A437B68DB6A1B061B4913434B601A
:103C80001B4B01221A6001F0C9FF386108E001F006
:103C9000C5FF02463B69D31A022B01D903235CE01E
:103CA000114B1B6803F00073002BF0D054E0104B55
:103CB00000221A6001F0B2FF386108E001F0AEFFA7
:103CC00002463B69D31A022B01D9032345E0064B78
:103CD0001B6803F00073002BF0D13DE07B689B690B
:103CE000012B07D1012338E000380240007000406A
:103CF000600047421B4B5B68FB607B689B69012B44
:103D000028D0FB6803F480027B68DB699A4221D1EA
:103D1000FB6803F03F027B681B6A9A421AD1FA687B
:103D200047F6C07313407A68526A9201934211D1E8
:103D3000FB6803F440327B689B6A5B08013B1B0411
:103D40009A4207D1FB6803F070627B68DB6A1B064E
:103D50009A4201D0012300E0002318461837BD46DF
:103D600080BD00BF0038024080B584B000AF7860ED
:103D700039607B68002B01D10123CCE0684B1B68C4
:103D800003F007033A689A420CD9654B3A68D2B2FD
:103D90001A70634B1B6803F007033A689A4201D01C
:103DA0000123B8E07B681B6803F00203002B20D0DE
:103DB0007B681B6803F00403002B05D0594B9B68FC
:103DC000584A43F4E05393607B681B6803F0080390
:103DD000002B05D0534B9B68524A43F460439360D9
:103DE000504B9B6823F0F0027B689B684D4913435E
:103DF0008B607B681B6803F00103002B44D07B6859
:103E00005B68012B07D1474B1B6803F40033002B81
:103E100019D101237FE07B685B68022B03D07B68AC
:103E20005B68032B07D13F4B1B6803F00073002B2B
:103E300009D101236FE03B4B1B6803F00203002B09
:103E400001D1012367E0374B9B6823F003027B68B5
:103E50005B68344913438B6001F0E0FEF8600AE0D0
:103E600001F0DCFE0246FB68D31A41F2883293422D
:103E700001D903234FE02B4B9B6803F00C027B68B6
:103E80005B689B009A42EBD1254B1B6803F007034C
:103E90003A689A420CD2224B3A68D2B21A70204B3E
:103EA0001B6803F007033A689A4201D0012332E00D
:103EB0007B681B6803F00403002B08D0194B9B6838
:103EC00023F4E0527B68DB68164913438B607B6800
:103ED0001B6803F00803002B09D0124B9B6823F4E6
:103EE00060427B681B69DB000E4913438B6000F066
:103EF00021F802460B4B9B681B0903F00F030A498C
:103F0000CB5C22FA03F3094A1360094B1B6818467D
:103F100001F040FE002318461037BD4680BD00BFAB
:103F2000003C024000380240FC6500080000002010
:103F3000040000202DE9B04F94B000AF00237B6453
:103F40000023FB6400233B640023BB64794B9B6824
:103F500003F00C03082B0DD0082B00F2E180002B9E
:103F600002D0042B03D0DBE0734BBB64DBE0734B6C
:103F7000BB64D8E06F4B5B6803F03F037B646D4B21
:103F80005B6803F48003002B63D06A4B5B689B097A
:103F90000022BB63FA63BB6BC3F308033B630023DC
:103FA0007B63D7E90C4522462B464FF000004FF0CB
:103FB0000001590141EAD261500102460B462146F7
:103FC000511A3961294663EB01037B614FF000020E
:103FD0004FF00003D7E904AB59468B01514643EA41
:103FE000916351468A015146B2EB0108594663EB91
:103FF00001094FF000024FF000034FEAC90343EA02
:1040000058734FEAC80290469946234618EB0303BB
:10401000BB602B4649EB0303FB604FF000024FF0FF
:104020000003D7E9024529464B02214643EAD15312
:1040300021464A02104619467B6C0022BB62FA6296
:10404000D7E90A23FCF7EAFC02460B461346FB6459
:1040500058E0384B5B689B09002218461146C0F3B4
:1040600008033B6200237B62D7E9088942464B463E
:104070004FF000004FF00001590141EAD2615001B8
:1040800002460B464146B2EB010A494663EB010B7F
:104090004FF000024FF000034FEA8B1343EA9A639C
:1040A0004FEA8A12B2EB0A0463EB0B054FF00002F1
:1040B0004FF00003EB0043EA5473E20014461D4640
:1040C0004346E3183B604B4645EB03037B604FF0F0
:1040D00000024FF00003D7E9004529468B02214634
:1040E00043EA915321468A02104619467B6C00220E
:1040F000BB61FA61D7E90623FCF790FC02460B4648
:104100001346FB640B4B5B681B0C03F0030301338A
:104110005B003B64FA6C3B6CB2FBF3F3BB6402E004
:10412000054BBB6400BFBB6C18465037BD46BDE8AD
:10413000B08F00BF003802400024F40000127A0063
:1041400080B400AF034B1B681846BD465DF8047B86
:10415000704700BF0000002080B500AFFFF7F0FF00
:104160000246054B9B689B0A03F007030349CB5C9F
:1041700022FA03F3184680BD003802400C6600089E
:1041800080B500AFFFF7DCFF0246054B9B685B0B79
:1041900003F007030349CB5C22FA03F3184680BD02
:1041A000003802400C66000880B485B000AF78602B
:1041B00039607B6893F83C30012B01D1022350E039
:1041C0007B68012283F83C207B68022283F83D2033
:1041D0007B681B685B68FB607B681B689B68BB60D7
:1041E000FB6823F07003FB603B681B68FA681343AD
:1041F000FB607B681B68FA685A607B681B681C4A16
:10420000934218D07B681B68B3F1804F13D07B6852
:104210001B68184A93420ED07B681B68164A93426B
:1042200009D07B681B68154A934204D07B681B68E1
:10423000134A93420CD1BB6823F08003BB603B68F8
:104240005B68BA681343BB607B681B68BA689A6096
:104250007B68012283F83D207B68002283F83C20A4
:10426000002318461437BD465DF8047B704700BF35
:10427000000001400004004000080040000C004025
:104280000040014080B483B000AF786000BF0C37BD
:10429000BD465DF8047B704780B483B000AF7860A2
:1042A00000BF0C37BD465DF8047B704780B582B017
:1042B00000AF78607B68002B01D1012341E07B686F
:1042C00093F83D30DBB2002B06D17B68002283F8E7
:1042D0003C207868FDF73CFB7B68022283F83D2098
:1042E0007B681A687B6804331946104600F0B6FAFA
:1042F0007B68012283F846207B68012283F83E20F8
:104300007B68012283F83F207B68012283F84020EC
:104310007B68012283F841207B68012283F84220D8
:104320007B68012283F843207B68012283F84420C4
:104330007B68012283F845207B68012283F83D20B9
:10434000002318460837BD4680BD000080B485B004
:1043500000AF78607B6893F83D30DBB2012B01D071
:10436000012344E07B68022283F83D207B681B68C0
:10437000DA687B681B6842F00102DA607B681B68C0
:104380001E4A934218D07B681B68B3F1804F13D04C
:104390007B681B681A4A93420ED07B681B68194AD7
:1043A000934209D07B681B68174A934204D07B680C
:1043B0001B68164A934211D17B681B689B6803F007
:1043C0000703FB60FB68062B10D07B681B681A682C
:1043D0007B681B6842F001021A6007E07B681B687B
:1043E0001A687B681B6842F001021A6000231846B5
:1043F0001437BD465DF8047B704700BF00000140E4
:104400000004004000080040000C00400040014053
:1044100080B483B000AF78607B681B68DA687B6823
:104420001B6822F00102DA607B681B681A6A41F29D
:1044300011131340002B0FD17B681B681A6A40F2DE
:1044400044431340002B07D17B681B681A687B68C4
:104450001B6822F001021A607B68012283F83D206C
:10446000002318460C37BD465DF8047B704780B5C5
:1044700082B000AF78607B681B681B6903F00203A1
:10448000022B22D17B681B68DB6803F00203022B3E
:104490001BD17B681B686FF002021A617B680122E6
:1044A0001A777B681B689B6903F00303002B03D01A
:1044B000786800F0B5F905E0786800F0A7F9786849
:1044C00000F0B8F97B6800221A777B681B681B69CB
:1044D00003F00403042B22D17B681B68DB6803F024
:1044E0000403042B1BD17B681B686FF004021A6164
:1044F0007B6802221A777B681B689B6903F4407310
:10450000002B03D0786800F08BF905E0786800F0A4
:104510007DF9786800F08EF97B6800221A777B6855
:104520001B681B6903F00803082B22D17B681B68FA
:10453000DB6803F00803082B1BD17B681B686FF056
:1045400008021A617B6804221A777B681B68DB69A2
:1045500003F00303002B03D0786800F061F905E055
:10456000786800F053F9786800F064F97B680022FD
:104570001A777B681B681B6903F01003102B22D18C
:104580007B681B68DB6803F01003102B1BD17B6872
:104590001B686FF010021A617B6808221A777B682B
:1045A0001B68DB6903F44073002B03D0786800F0CC
:1045B00037F905E0786800F029F9786800F03AF9F1
:1045C0007B6800221A777B681B681B6903F0010374
:1045D000012B0ED17B681B68DB6803F00103012B04
:1045E00007D17B681B686FF001021A617868FCF7DD
:1045F00027FE7B681B681B6903F08003802B0ED1AC
:104600007B681B68DB6803F08003802B07D17B6825
:104610001B686FF080021A617868FFF73DFE7B68C7
:104620001B681B6903F04003402B0ED17B681B689D
:10463000DB6803F04003402B07D17B681B686FF0F9
:1046400040021A61786800F0FFF87B681B681B69FC
:1046500003F02003202B0ED17B681B68DB6803F07E
:104660002003202B07D17B681B686FF020021A61A2
:104670007868FFF707FE00BF0837BD4680BD80B5EC
:1046800084B000AF786039600023FB737B6893F8D7
:104690003C30012B01D10223B4E07B68012283F876
:1046A0003C207B68022283F83D207B681B689B6866
:1046B000BB60BB6823F07703BB60BB6823F47F4318
:1046C000BB607B681B68BA689A603B681B68B3F57F
:1046D000005F3ED0B3F5005F00F28780B3F5805FE6
:1046E00000F08680B3F5805F7FD8702B1AD0702BD6
:1046F0007BD8602B50D0602B77D8502B3CD0502BE0
:1047000073D8402B58D0402B6FD8302B64D0302B2F
:104710006BD8202B60D0202B67D8002B5CD0102BBF
:104720005AD062E07B6818683B6899683B685A68B1
:104730003B68DB6800F08CF97B681B689B68BB609A
:10474000BB6843F07703BB607B681B68BA689A60FC
:104750004FE07B6818683B6899683B685A683B681B
:10476000DB6800F075F97B681B689A687B681B68DA
:1047700042F480429A603CE07B6818683B68596864
:104780003B68DB681A4600F0E9F87B681B6850213B
:10479000184600F042F92CE07B6818683B685968BD
:1047A0003B68DB681A4600F008F97B681B686021EB
:1047B000184600F032F91CE07B6818683B685968BD
:1047C0003B68DB681A4600F0C9F87B681B6840212B
:1047D000184600F022F90CE07B681A683B681B68F9
:1047E0001946104600F019F903E00123FB7300E0BD
:1047F00000BF7B68012283F83D207B68002283F89C
:104800003C20FB7B18461037BD4680BD80B483B08A
:1048100000AF786000BF0C37BD465DF8047B704781
:1048200080B483B000AF786000BF0C37BD465DF840
:10483000047B704780B483B000AF786000BF0C3752
:10484000BD465DF8047B704780B483B000AF7860EC
:1048500000BF0C37BD465DF8047B704780B485B05F
:1048600000AF786039607B681B68FB607B68344A06
:1048700093420FD07B68B3F1804F0BD07B68314AF5
:10488000934207D07B68304A934203D07B682F4A1B
:10489000934208D1FB6823F07003FB603B685B68C0
:1048A000FA681343FB607B68254A93421BD07B6800
:1048B000B3F1804F17D07B68224A934213D07B68B4
:1048C000214A93420FD07B68204A93420BD07B68E9
:1048D0001F4A934207D07B681E4A934203D07B68ED
:1048E0001D4A934208D1FB6823F44073FB603B6888
:1048F000DB68FA681343FB60FB6823F080023B68C7
:104900005B691343FB607B68FA681A603B689A68CE
:104910007B68DA623B681A687B689A627B68084A3F
:10492000934203D13B681A697B681A637B68012252
:104930005A6100BF1437BD465DF8047B704700BF65
:10494000000001400004004000080040000C00404E
:1049500000400140004401400048014080B487B05D
:1049600000AFF860B9607A60FB681B6A7B61FB6826
:104970001B6A23F00102FB681A62FB689B693B61BA
:104980003B6923F0F0033B617B681B013A691343E9
:104990003B617B6923F00A037B617A69BB6813433F
:1049A0007B61FB683A699A61FB687A691A6200BFA9
:1049B0001C37BD465DF8047B704780B487B000AFFC
:1049C000F860B9607A60FB681B6A23F01002FB682C
:1049D0001A62FB689B697B61FB681B6A3B617B69B0
:1049E00023F470437B617B681B037A6913437B610B
:1049F0003B6923F0A0033B61BB681B013A69134389
:104A00003B61FB687A699A61FB683A691A6200BF88
:104A10001C37BD465DF8047B704780B485B000AF9D
:104A2000786039607B689B68FB60FB6823F07003EB
:104A3000FB603A68FB68134343F00703FB607B6845
:104A4000FA689A6000BF1437BD465DF8047B704772
:104A500080B487B000AFF860B9607A603B60FB68F3
:104A60009B687B617B6923F47F437B613B681A020F
:104A70007B681A43BB6813437A6913437B61FB6805
:104A80007A699A6000BF1C37BD465DF8047B7047A9
:104A900080B582B000AF78607B68002B01D1012324
:104AA0003FE07B6893F83D30DBB2002B06D17B689A
:104AB000002283F83C207868FCF79CFF7B68242266
:104AC00083F83D207B681B68DA687B681B6822F4EA
:104AD0000052DA60786800F0C7FD7B681B681A69CD
:104AE0007B681B6822F490421A617B681B685A69D4
:104AF0007B681B6822F02A025A617B681B68DA68AF
:104B00007B681B6842F40052DA607B6800221A64FA
:104B10007B68202283F83D207B68202283F83E209A
:104B2000002318460837BD4680BD000080B58CB014
:104B300000AFF860B9601346FB80FB6893F83D3026
:104B4000DBB2202B65D1BB68002B02D0FB88002B89
:104B500001D101235EE0FB6893F83C30012B01D1C9
:104B6000022357E0FB68012283F83C20BA68FB6807
:104B70001A62FB68FA889A84FB68FA88DA84FB6810
:104B800000221A64FB68212283F83D20FB685B6BDE
:104B9000224ADA63FB685B6B214A1A64FB685B6B31
:104BA000204ADA64FB685B6B00221A6507F1080390
:104BB000FB62FB68586BFB6A1968FB681B6804336F
:104BC0001A46FB88FDF782F9FB681B686FF040020C
:104BD0001A60FB68002283F83C20FB681B681433D2
:104BE000BB61BB6953E8003F7B617B6943F0800395
:104BF000BB62FB681B681433BA6A7A623B62396A2B
:104C00007A6A41E80023FB61FB69002BE5D10023B0
:104C100000E0022318463037BD4680BD9951000898
:104C2000335200084F52000880B5BAB000AF786028
:104C30007B681B681B68C7F8E4307B681B68DB680F
:104C4000C7F8E0307B681B685B69C7F8DC3000237D
:104C5000C7F8D8300023C7F8D430D7F8E43003F0D1
:104C60000F03C7F8D830D7F8D830002B0FD1D7F8BA
:104C7000E43003F02003002B09D0D7F8E03003F034
:104C80002003002B03D0786800F032FC56E2D7F8FE
:104C9000D830002B00F0DE80D7F8DC3003F00103C1
:104CA000002B06D1D7F8E03003F49073002B00F00E
:104CB000D180D7F8E43003F00103002B0BD0D7F8F4
:104CC000E03003F48073002B05D07B681B6C43F04D
:104CD00001027B681A64D7F8E43003F00403002B68
:104CE0000BD0D7F8DC3003F00103002B05D07B6834
:104CF0001B6C43F002027B681A64D7F8E43003F0BF
:104D00000203002B0BD0D7F8DC3003F00103002B9B
:104D100005D07B681B6C43F004027B681A64D7F8EB
:104D2000E43003F00803002B11D0D7F8E03003F093
:104D30002003002B05D1D7F8DC3003F00103002B52
:104D400005D07B681B6C43F008027B681A647B68A3
:104D50001B6C002B00F0ED81D7F8E43003F020034A
:104D6000002B08D0D7F8E03003F02003002B02D04E
:104D7000786800F0BDFB7B681B685B6903F040034B
:104D8000402B0CBF01230023DBB2C7F8D4307B6873
:104D90001B6C03F00803002B03D1D7F8D430002B91
:104DA0004FD0786800F0C5FA7B681B685B6903F038
:104DB0004003402B41D17B681B681433C7F89C30FB
:104DC000D7F89C3053E8003FC7F89830D7F89830B0
:104DD00023F04003C7F8D0307B681B681433D7F842
:104DE000D020C7F8A820C7F8A430D7F8A410D7F867
:104DF000A82041E80023C7F8A030D7F8A030002B46
:104E0000D9D17B689B6B002B13D07B689B6B7D4A51
:104E10001A657B689B6B1846FDF720F90346002B4B
:104E200016D07B689B6B1B6D7A68926B1046984717
:104E30000EE0786800F09AF90AE0786800F096F9D8
:104E400006E0786800F092F97B6800221A6470E14D
:104E500000BF6EE17B681B6B012B40F04A81D7F8E5
:104E6000E43003F01003002B00F04381D7F8E0306A
:104E700003F01003002B00F03C810023BB607B6833
:104E80001B681B68BB607B681B685B68BB60BB689A
:104E90007B681B685B6903F04003402B40F0B480E3
:104EA0007B689B6B1B685B68A7F8BE30B7F8BE30A9
:104EB000002B00F040817B689B8DB7F8BE209A42A2
:104EC00080F039817B68B7F8BE20DA857B689B6B00
:104ED000DB69B3F5807F00F088807B681B680C334A
:104EE000C7F88830D7F8883053E8003FC7F88430D7
:104EF000D7F8843023F48073C7F8B8307B681B6818
:104F00000C33D7F8B820C7F89420C7F89030D7F8FA
:104F10009010D7F8942041E80023C7F88C30D7F8D8
:104F20008C30002BD9D17B681B6814337B677B6F77
:104F300053E8003F3B673B6F23F00103C7F8B430F1
:104F40007B681B681433D7F8B420C7F88020FB6750
:104F5000F96FD7F8802041E80023BB67BB6F002BB7
:104F6000E1D17B681B6814333B663B6E53E8003F1E
:104F7000FB65FB6D23F04003C7F8B0307B681B680E
:104F80001433D7F8B020FA66BB66B96EFA6E41E802
:104F900000237B667B6E002BE3D17B68202283F8A5
:104FA0003E207B6800221A637B681B680C33FB641D
:104FB000FB6C53E8003FBB64BB6C23F01003C7F8E5
:104FC000AC307B681B680C33D7F8AC20BA657B65C6
:104FD000796DBA6D41E800233B653B6D002BE3D151
:104FE0007B689B6B1846FCF7C9FF7B689A8D7B68D2
:104FF000DB8D9BB2D31A9BB21946786800F0C0F8DB
:1050000099E000BFF95300087B689A8D7B68DB8DBF
:105010009BB2D31AA7F8CE307B68DB8D9BB2002BF6
:1050200000F08B80B7F8CE30002B00F086807B68D4
:105030001B680C33BB63BB6B53E8003F7B637B6B2C
:1050400023F49073C7F8C8307B681B680C33D7F81B
:10505000C8207A643B64396C7A6C41E80023FB63B6
:10506000FB6B002BE3D17B681B6814337B627B6A8C
:1050700053E8003F3B623B6A23F00103C7F8C430AA
:105080007B681B681433D7F8C4203A63FB62F96A63
:105090003A6B41E80023BB62BB6A002BE3D17B681B
:1050A000202283F83E207B6800221A637B681B68FD
:1050B0000C333B613B6953E8003FFB60FB6823F026
:1050C0001003C7F8C0307B681B680C33D7F8C020CA
:1050D000FA61BB61B969FA6941E800237B617B69C8
:1050E000002BE3D1B7F8CE301946786800F048F8C5
:1050F00023E0D7F8E43003F08003002B09D0D7F881
:10510000E03003F08003002B03D0786800F088F9CA
:1051100014E0D7F8E43003F04003002B0ED0D7F8AA
:10512000E03003F04003002B08D0786800F0C8F9A5
:1051300004E000BF02E000BF00E000BFE837BD466A
:1051400080BD00BF80B483B000AF786000BF0C3773
:10515000BD465DF8047B704780B483B000AF7860D3
:1051600000BF0C37BD465DF8047B704780B483B048
:1051700000AF786000BF0C37BD465DF8047B704718
:1051800080B483B000AF78600B467B8000BF0C37E3
:10519000BD465DF8047B704780B590B000AF786085
:1051A0007B689B6BFB637B681B681B6803F48073E5
:1051B000002B37D1FB6B0022DA84FB6B1B681433A6
:1051C0007B627B6A53E8003F3B623B6A23F08003CB
:1051D000BB63FB6B1B681433BA6B3A63FB62F96AFF
:1051E0003A6B41E80023BB62BB6A002BE5D1FB6B45
:1051F0001B680C333B613B6953E8003FFB60FB6875
:1052000043F040037B63FB6B1B680C337A6BFA61E2
:10521000BB61B969FA6941E800237B617B69002BB6
:10522000E5D102E0F86BFFF78DFF00BF4037BD46C8
:1052300080BD80B584B000AF78607B689B6BFB60FD
:10524000F868FFF789FF00BF1037BD4680BD80B505
:1052500084B000AF78600023FB607B689B6BBB6011
:10526000BB681B685B6903F08003802B0CBF0123C4
:105270000023DBB2FB60BB6893F83D30DBB2212B2F
:1052800008D1FB68002B05D0BB680022DA84B8681F
:1052900000F027F8BB681B685B6903F04003402BF4
:1052A0000CBF01230023DBB2FB60BB6893F83E30E8
:1052B000DBB2222B08D1FB68002B05D0BB68002293
:1052C000DA85B86800F035F8BB681B6C43F0100253
:1052D000BB681A64B868FFF749FF00BF1037BD46C6
:1052E00080BD80B489B000AF78607B681B680C33E8
:1052F000FB60FB6853E8003FBB60BB6823F0C00362
:10530000FB617B681B680C33FA69BA617B61796960
:10531000BA6941E800233B613B69002BE5D17B681A
:10532000202283F83D2000BF2437BD465DF8047B72
:10533000704780B495B000AF78607B681B680C3311
:105340007B637B6B53E8003F3B633B6B23F49073C1
:10535000FB647B681B680C33FA6C3A64FB63F96B83
:105360003A6C41E80023BB63BB6B002BE5D17B6843
:105370001B6814333B623B6A53E8003FFB61FB69E7
:1053800023F00103BB647B681B681433BA6CFA62B8
:10539000BB62B96AFA6A41E800237B627B6A002B30
:1053A000E5D17B681B6B012B19D17B681B680C3323
:1053B000FB60FB6853E8003FBB60BB6823F0100351
:1053C0007B647B681B680C337A6CBA617B6179699A
:1053D000BA6941E800233B613B69002BE5D17B685A
:1053E000202283F83E207B6800221A6300BF5437D6
:1053F000BD465DF8047B704780B584B000AF78602F
:105400007B689B6BFB60FB680022DA85FB680022EF
:10541000DA84F868FFF7AAFE00BF1037BD4680BDEA
:1054200080B485B000AF78607B6893F83D30DBB224
:10543000212B3ED17B689B68B3F5805F14D17B68DC
:105440001B69002B10D17B681B6AFB60FB681B8803
:105450001A467B681B68C2F308025A607B681B6AA5
:105460009A1C7B681A6208E07B681B6A591C7A6880
:1054700011621A787B681B685A607B68DB8C9BB270
:10548000013B9BB27A681946D184002B0FD17B680F
:105490001B68DA687B681B6822F08002DA607B6830
:1054A0001B68DA687B681B6842F04002DA60002300
:1054B00000E0022318461437BD465DF8047B7047B0
:1054C00080B582B000AF78607B681B68DA687B6863
:1054D0001B6822F04002DA607B68202283F83D20BE
:1054E0007868FFF72FFE002318460837BD4680BDB9
:1054F00080B58CB000AF78607B6893F83E30DBB24B
:10550000222B40F0AB807B689B68B3F5805F17D19E
:105510007B681B69002B13D10023FB627B689B6AAD
:10552000BB627B681B685B689BB2C3F308039AB2DB
:10553000BB6A1A807B689B6A9A1C7B689A6226E029
:105540007B689B6AFB620023BB627B689B68B3F548
:10555000805F07D07B689B68002B0AD17B681B6942
:10556000002B06D17B681B685B68DAB2FB6A1A7095
:1055700008E07B681B685B68DBB203F07F03DAB28C
:10558000FB6A1A707B689B6A5A1C7B689A627B680C
:10559000DB8D9BB2013B9BB27A681946D185002B0B
:1055A0005AD17B681B68DA687B681B6822F020028E
:1055B000DA607B681B68DA687B681B6822F480729B
:1055C000DA607B681B685A697B681B6822F00102FD
:1055D0005A617B68202283F83E207B681B6B012B7D
:1055E00035D17B6800221A637B681B680C337B61B2
:1055F0007B6953E8003F3B613B6923F010037B620A
:105600007B681B680C337A6A3A62FB61F9693A6A13
:1056100041E80023BB61BB69002BE5D17B681B68B7
:105620001B6803F01003102B0AD10023FB607B687A
:105630001B681B68FB607B681B685B68FB60FB6822
:105640007B689B8D19467868FFF79AFD02E07868C1
:10565000FBF70CFE002302E0002300E002231846C3
:105660003037BD4680BD00002DE9B04FC0B000AF5F
:10567000C7F8F400D7F8F4301B681B6923F44050D6
:10568000D7F8F430D968D7F8F4301A6840EA010343
:105690001361D7F8F4309A68D7F8F4301B691A43CD
:1056A000D7F8F4305B691A43D7F8F430DB69134359
:1056B000C7F8F830D7F8F4301B68DB6823F41641DC
:1056C00021F00C01D7F8F4301A68D7F8F8300B4302
:1056D000D360D7F8F4301B685B6923F44070D7F8C7
:1056E000F4309969D7F8F4301A6840EA010353613D
:1056F000D7F8F4301A688F4B9A4205D0D7F8F430B7
:105700001A688D4B9A4204D1FEF73AFDC7F8FC00A7
:1057100003E0FEF721FDC7F8FC00D7F8F430DB69A1
:10572000B3F5004F40F00C81D7F8FC300022C7F8E9
:10573000E830C7F8EC20D7E93A4522462B469118C5
:10574000B9655B41FB65D7E91623214612EB0108D9
:10575000294643EB01094FF000024FF000034FEAE6
:10576000C90343EA58734FEAC80290469946234654
:1057700018EB0303C7F8E0302B4649EB0303C7F8E7
:10578000E430D7F8F4305B680022C7F8D830C7F8A7
:10579000DC20D7E936120B46DB183B65134642EB9B
:1057A00003037B65D7E91423D7E93801FBF736F902
:1057B00002460B46614BA3FB02235B091C01D7F891
:1057C000FC300022C7F8D030C7F8D420D7E934899C
:1057D00042464B469118B9645B41FB64D7E91223FA
:1057E000414612EB010A494643EB010B4FF0000220
:1057F0004FF000034FEACB0343EA5A734FEACA0261
:1058000092469B4643461AEB0303C7F8C8304B4603
:105810004BEB0303C7F8CC30D7F8F4305B680022B9
:10582000C7F8C030C7F8C420D7E930120B46DB18E0
:105830003B64134642EB03037B64D7E91023D7E9AB
:105840003201FBF7EBF802460B4611463B4BA3FB3C
:1058500001235B09642202FB03F3CB1ADB0003F193
:105860003202364BA3FB02235B095B0003F4F8739F
:105870001C44D7F8FC300022C7F8B830C7F8BC2069
:10588000D7E92E8942464B469118B9635B41FB63C9
:10589000D7E90E2341465118396349464B417B6392
:1058A0004FF000024FF00003D7E90CAB5946CB0094
:1058B000514643EA51735146CA0010461946034601
:1058C00042469B18C7F8B0304B460A4642EB0303EA
:1058D000C7F8B430D7F8F4305B680022C7F8A830B6
:1058E000C7F8AC20D7E92A120B46DB18BB62134677
:1058F00042EB0303FB62D7E90A23D7E92C01FBF74C
:105900008DF802460B460D4BA3FB02135B09642185
:1059100001FB03F3D31ADB003233084AA2FB032353
:105920005B0903F00702D7F8F4301B6822449A6041
:1059300005E100BF00100140001401401F85EB513C
:10594000D7F8FC300022C7F8A030C7F8A420D7E968
:10595000288942464B46911839625B417B62D7E900
:10596000082341465418494643EB01054FF0000215
:105970004FF00003EB0043EA5473E20014461D4667
:105980004346E318C7F898304B4645EB0303C7F886
:105990009C30D7F8F4305B680022C7F89030C7F825
:1059A00094204FF000024FF00003D7E92445294628
:1059B0008B00214643EA917321468A00D7E92601EC
:1059C000FBF72CF802460B46604BA3FB02235B0956
:1059D0001C01D7F8FC300022C7F88830C7F88C20AB
:1059E000D7E9228942464B469118B9615B41FB6178
:1059F000D7E9062341465118396149464B417B613D
:105A00004FF000024FF00003D7E904AB5946CB003A
:105A1000514643EA51735146CA001046194603469F
:105A200042469B18C7F880304B460A4642EB0303B8
:105A3000C7F88430D7F8F4305B680022BB67FA6798
:105A40004FF000024FF00003D7E91E8949468B0052
:105A5000414643EA917341468A00D7E92001FAF7AB
:105A6000DDFF02460B46394BA3FB02135B096421A1
:105A700001FB03F3D31A1B013233344AA2FB032385
:105A80005B0903F0F0031C44D7F8FC3000223B67AD
:105A90007A67D7E91C8942464B469118B9605B4149
:105AA000FB60D7E9022341465118396049464B4112
:105AB0007B604FF000024FF00003D7E900AB59467E
:105AC000CB00514643EA51735146CA00104619466D
:105AD000034642469B18BB664B460A4642EB03030D
